{
	"basic/contracts/Giveaway.sol": {
		"Giveaway": {
			"abi": [
				{
					"inputs": [],
					"stateMutability": "nonpayable",
					"type": "constructor"
				},
				{
					"inputs": [
						{
							"internalType": "string",
							"name": "_name",
							"type": "string"
						},
						{
							"internalType": "string",
							"name": "_email",
							"type": "string"
						},
						{
							"internalType": "address",
							"name": "_userAddress",
							"type": "address"
						},
						{
							"internalType": "uint256",
							"name": "_giveawayCode",
							"type": "uint256"
						}
					],
					"name": "addWinner",
					"outputs": [],
					"stateMutability": "nonpayable",
					"type": "function"
				},
				{
					"inputs": [
						{
							"internalType": "string",
							"name": "_name",
							"type": "string"
						},
						{
							"internalType": "string",
							"name": "_email",
							"type": "string"
						},
						{
							"internalType": "address",
							"name": "_userAddress",
							"type": "address"
						},
						{
							"internalType": "uint256",
							"name": "_giveawayCode",
							"type": "uint256"
						}
					],
					"name": "checkUser",
					"outputs": [
						{
							"internalType": "bool",
							"name": "",
							"type": "bool"
						}
					],
					"stateMutability": "view",
					"type": "function"
				},
				{
					"inputs": [],
					"name": "showWinner",
					"outputs": [
						{
							"components": [
								{
									"internalType": "string",
									"name": "name",
									"type": "string"
								},
								{
									"internalType": "string",
									"name": "email",
									"type": "string"
								},
								{
									"internalType": "address",
									"name": "userAddress",
									"type": "address"
								},
								{
									"internalType": "uint256",
									"name": "giveawayCode",
									"type": "uint256"
								}
							],
							"internalType": "struct Giveaway.UserData[]",
							"name": "",
							"type": "tuple[]"
						}
					],
					"stateMutability": "view",
					"type": "function"
				},
				{
					"inputs": [
						{
							"internalType": "uint256",
							"name": "",
							"type": "uint256"
						}
					],
					"name": "usersData",
					"outputs": [
						{
							"internalType": "string",
							"name": "name",
							"type": "string"
						},
						{
							"internalType": "string",
							"name": "email",
							"type": "string"
						},
						{
							"internalType": "address",
							"name": "userAddress",
							"type": "address"
						},
						{
							"internalType": "uint256",
							"name": "giveawayCode",
							"type": "uint256"
						}
					],
					"stateMutability": "view",
					"type": "function"
				}
			],
			"devdoc": {
				"kind": "dev",
				"methods": {},
				"version": 1
			},
			"evm": {
				"assembly": "    /* \"basic/contracts/Giveaway.sol\":74:1368  contract Giveaway {... */\n  mstore(0x40, 0x80)\n    /* \"basic/contracts/Giveaway.sol\":303:336  constructor(){... */\n  callvalue\n  dup1\n  iszero\n  tag_1\n  jumpi\n  0x00\n  dup1\n  revert\ntag_1:\n  pop\n    /* \"basic/contracts/Giveaway.sol\":74:1368  contract Giveaway {... */\n  dataSize(sub_0)\n  dup1\n  dataOffset(sub_0)\n  0x00\n  codecopy\n  0x00\n  return\nstop\n\nsub_0: assembly {\n        /* \"basic/contracts/Giveaway.sol\":74:1368  contract Giveaway {... */\n      mstore(0x40, 0x80)\n      callvalue\n      dup1\n      iszero\n      tag_1\n      jumpi\n      0x00\n      dup1\n      revert\n    tag_1:\n      pop\n      jumpi(tag_2, lt(calldatasize, 0x04))\n      calldataload(0x00)\n      0x0100000000000000000000000000000000000000000000000000000000\n      swap1\n      div\n      dup1\n      0x87d96c55\n      eq\n      tag_3\n      jumpi\n      dup1\n      0x8905c274\n      eq\n      tag_4\n      jumpi\n      dup1\n      0xad1aa429\n      eq\n      tag_5\n      jumpi\n      dup1\n      0xb7e03264\n      eq\n      tag_6\n      jumpi\n    tag_2:\n      0x00\n      dup1\n      revert\n        /* \"basic/contracts/Giveaway.sol\":912:1258  function addWinner(string memory _name, string memory _email,address _userAddress, uint256  _giveawayCode) public {... */\n    tag_3:\n      tag_7\n      0x04\n      dup1\n      calldatasize\n      sub\n      dup2\n      add\n      swap1\n      tag_8\n      swap2\n      swap1\n      tag_9\n      jump\t// in\n    tag_8:\n      tag_10\n      jump\t// in\n    tag_7:\n      stop\n        /* \"basic/contracts/Giveaway.sol\":267:294  UserData[] public usersData */\n    tag_4:\n      tag_11\n      0x04\n      dup1\n      calldatasize\n      sub\n      dup2\n      add\n      swap1\n      tag_12\n      swap2\n      swap1\n      tag_13\n      jump\t// in\n    tag_12:\n      tag_14\n      jump\t// in\n    tag_11:\n      mload(0x40)\n      tag_15\n      swap5\n      swap4\n      swap3\n      swap2\n      swap1\n      tag_16\n      jump\t// in\n    tag_15:\n      mload(0x40)\n      dup1\n      swap2\n      sub\n      swap1\n      return\n        /* \"basic/contracts/Giveaway.sol\":344:903  function checkUser(string memory _name, string memory _email, address _userAddress, uint256  _giveawayCode) public view returns (bool){... */\n    tag_5:\n      tag_17\n      0x04\n      dup1\n      calldatasize\n      sub\n      dup2\n      add\n      swap1\n      tag_18\n      swap2\n      swap1\n      tag_9\n      jump\t// in\n    tag_18:\n      tag_19\n      jump\t// in\n    tag_17:\n      mload(0x40)\n      tag_20\n      swap2\n      swap1\n      tag_21\n      jump\t// in\n    tag_20:\n      mload(0x40)\n      dup1\n      swap2\n      sub\n      swap1\n      return\n        /* \"basic/contracts/Giveaway.sol\":1268:1365  function showWinner() public view returns(UserData[] memory){... */\n    tag_6:\n      tag_22\n      tag_23\n      jump\t// in\n    tag_22:\n      mload(0x40)\n      tag_24\n      swap2\n      swap1\n      tag_25\n      jump\t// in\n    tag_24:\n      mload(0x40)\n      dup1\n      swap2\n      sub\n      swap1\n      return\n        /* \"basic/contracts/Giveaway.sol\":912:1258  function addWinner(string memory _name, string memory _email,address _userAddress, uint256  _giveawayCode) public {... */\n    tag_10:\n        /* \"basic/contracts/Giveaway.sol\":1037:1063  UserData memory winnerUser */\n      0x00\n        /* \"basic/contracts/Giveaway.sol\":1066:1205  UserData({... */\n      mload(0x40)\n      dup1\n      0x80\n      add\n      0x40\n      mstore\n      dup1\n        /* \"basic/contracts/Giveaway.sol\":1092:1097  _name */\n      dup7\n        /* \"basic/contracts/Giveaway.sol\":1066:1205  UserData({... */\n      dup2\n      mstore\n      0x20\n      add\n        /* \"basic/contracts/Giveaway.sol\":1115:1121  _email */\n      dup6\n        /* \"basic/contracts/Giveaway.sol\":1066:1205  UserData({... */\n      dup2\n      mstore\n      0x20\n      add\n        /* \"basic/contracts/Giveaway.sol\":1145:1157  _userAddress */\n      dup5\n        /* \"basic/contracts/Giveaway.sol\":1066:1205  UserData({... */\n      0xffffffffffffffffffffffffffffffffffffffff\n      and\n      dup2\n      mstore\n      0x20\n      add\n        /* \"basic/contracts/Giveaway.sol\":1182:1195  _giveawayCode */\n      dup4\n        /* \"basic/contracts/Giveaway.sol\":1066:1205  UserData({... */\n      dup2\n      mstore\n      pop\n        /* \"basic/contracts/Giveaway.sol\":1037:1205  UserData memory winnerUser = UserData({... */\n      swap1\n      pop\n        /* \"basic/contracts/Giveaway.sol\":1216:1225  usersData */\n      0x01\n        /* \"basic/contracts/Giveaway.sol\":1231:1241  winnerUser */\n      dup2\n        /* \"basic/contracts/Giveaway.sol\":1216:1242  usersData.push(winnerUser) */\n      swap1\n      dup1\n      0x01\n      dup2\n      sload\n      add\n      dup1\n      dup3\n      sstore\n      dup1\n      swap2\n      pop\n      pop\n      0x01\n      swap1\n      sub\n      swap1\n      0x00\n      mstore\n      keccak256(0x00, 0x20)\n      swap1\n      0x04\n      mul\n      add\n      0x00\n      swap1\n      swap2\n      swap1\n      swap2\n      swap1\n      swap2\n      pop\n      0x00\n      dup3\n      add\n      mload\n      dup2\n      0x00\n      add\n      swap1\n      dup2\n      tag_28\n      swap2\n      swap1\n      tag_29\n      jump\t// in\n    tag_28:\n      pop\n      0x20\n      dup3\n      add\n      mload\n      dup2\n      0x01\n      add\n      swap1\n      dup2\n      tag_30\n      swap2\n      swap1\n      tag_29\n      jump\t// in\n    tag_30:\n      pop\n      0x40\n      dup3\n      add\n      mload\n      dup2\n      0x02\n      add\n      exp(0x0100, 0x00)\n      dup2\n      sload\n      dup2\n      0xffffffffffffffffffffffffffffffffffffffff\n      mul\n      not\n      and\n      swap1\n      dup4\n      0xffffffffffffffffffffffffffffffffffffffff\n      and\n      mul\n      or\n      swap1\n      sstore\n      pop\n      0x60\n      dup3\n      add\n      mload\n      dup2\n      0x03\n      add\n      sstore\n      pop\n      pop\n        /* \"basic/contracts/Giveaway.sol\":1026:1258  {... */\n      pop\n        /* \"basic/contracts/Giveaway.sol\":912:1258  function addWinner(string memory _name, string memory _email,address _userAddress, uint256  _giveawayCode) public {... */\n      pop\n      pop\n      pop\n      pop\n      jump\t// out\n        /* \"basic/contracts/Giveaway.sol\":267:294  UserData[] public usersData */\n    tag_14:\n      0x01\n      dup2\n      dup2\n      sload\n      dup2\n      lt\n      tag_31\n      jumpi\n      0x00\n      dup1\n      revert\n    tag_31:\n      swap1\n      0x00\n      mstore\n      keccak256(0x00, 0x20)\n      swap1\n      0x04\n      mul\n      add\n      0x00\n      swap2\n      pop\n      swap1\n      pop\n      dup1\n      0x00\n      add\n      dup1\n      sload\n      tag_33\n      swap1\n      tag_34\n      jump\t// in\n    tag_33:\n      dup1\n      0x1f\n      add\n      0x20\n      dup1\n      swap2\n      div\n      mul\n      0x20\n      add\n      mload(0x40)\n      swap1\n      dup2\n      add\n      0x40\n      mstore\n      dup1\n      swap3\n      swap2\n      swap1\n      dup2\n      dup2\n      mstore\n      0x20\n      add\n      dup3\n      dup1\n      sload\n      tag_35\n      swap1\n      tag_34\n      jump\t// in\n    tag_35:\n      dup1\n      iszero\n      tag_36\n      jumpi\n      dup1\n      0x1f\n      lt\n      tag_37\n      jumpi\n      0x0100\n      dup1\n      dup4\n      sload\n      div\n      mul\n      dup4\n      mstore\n      swap2\n      0x20\n      add\n      swap2\n      jump(tag_36)\n    tag_37:\n      dup3\n      add\n      swap2\n      swap1\n      0x00\n      mstore\n      keccak256(0x00, 0x20)\n      swap1\n    tag_38:\n      dup2\n      sload\n      dup2\n      mstore\n      swap1\n      0x01\n      add\n      swap1\n      0x20\n      add\n      dup1\n      dup4\n      gt\n      tag_38\n      jumpi\n      dup3\n      swap1\n      sub\n      0x1f\n      and\n      dup3\n      add\n      swap2\n    tag_36:\n      pop\n      pop\n      pop\n      pop\n      pop\n      swap1\n      dup1\n      0x01\n      add\n      dup1\n      sload\n      tag_39\n      swap1\n      tag_34\n      jump\t// in\n    tag_39:\n      dup1\n      0x1f\n      add\n      0x20\n      dup1\n      swap2\n      div\n      mul\n      0x20\n      add\n      mload(0x40)\n      swap1\n      dup2\n      add\n      0x40\n      mstore\n      dup1\n      swap3\n      swap2\n      swap1\n      dup2\n      dup2\n      mstore\n      0x20\n      add\n      dup3\n      dup1\n      sload\n      tag_40\n      swap1\n      tag_34\n      jump\t// in\n    tag_40:\n      dup1\n      iszero\n      tag_41\n      jumpi\n      dup1\n      0x1f\n      lt\n      tag_42\n      jumpi\n      0x0100\n      dup1\n      dup4\n      sload\n      div\n      mul\n      dup4\n      mstore\n      swap2\n      0x20\n      add\n      swap2\n      jump(tag_41)\n    tag_42:\n      dup3\n      add\n      swap2\n      swap1\n      0x00\n      mstore\n      keccak256(0x00, 0x20)\n      swap1\n    tag_43:\n      dup2\n      sload\n      dup2\n      mstore\n      swap1\n      0x01\n      add\n      swap1\n      0x20\n      add\n      dup1\n      dup4\n      gt\n      tag_43\n      jumpi\n      dup3\n      swap1\n      sub\n      0x1f\n      and\n      dup3\n      add\n      swap2\n    tag_41:\n      pop\n      pop\n      pop\n      pop\n      pop\n      swap1\n      dup1\n      0x02\n      add\n      0x00\n      swap1\n      sload\n      swap1\n      0x0100\n      exp\n      swap1\n      div\n      0xffffffffffffffffffffffffffffffffffffffff\n      and\n      swap1\n      dup1\n      0x03\n      add\n      sload\n      swap1\n      pop\n      dup5\n      jump\t// out\n        /* \"basic/contracts/Giveaway.sol\":344:903  function checkUser(string memory _name, string memory _email, address _userAddress, uint256  _giveawayCode) public view returns (bool){... */\n    tag_19:\n        /* \"basic/contracts/Giveaway.sol\":473:477  bool */\n      0x00\n        /* \"basic/contracts/Giveaway.sol\":493:502  uint256 i */\n      dup1\n        /* \"basic/contracts/Giveaway.sol\":504:505  0 */\n      0x00\n        /* \"basic/contracts/Giveaway.sol\":493:505  uint256 i =0 */\n      swap1\n      pop\n        /* \"basic/contracts/Giveaway.sol\":489:873  for(uint256 i =0; i < usersData.length; i++){... */\n    tag_45:\n        /* \"basic/contracts/Giveaway.sol\":511:520  usersData */\n      0x01\n        /* \"basic/contracts/Giveaway.sol\":511:527  usersData.length */\n      dup1\n      sload\n      swap1\n      pop\n        /* \"basic/contracts/Giveaway.sol\":507:508  i */\n      dup2\n        /* \"basic/contracts/Giveaway.sol\":507:527  i < usersData.length */\n      lt\n        /* \"basic/contracts/Giveaway.sol\":489:873  for(uint256 i =0; i < usersData.length; i++){... */\n      iszero\n      tag_46\n      jumpi\n        /* \"basic/contracts/Giveaway.sol\":546:567  UserData storage user */\n      0x00\n        /* \"basic/contracts/Giveaway.sol\":570:579  usersData */\n      0x01\n        /* \"basic/contracts/Giveaway.sol\":580:581  i */\n      dup3\n        /* \"basic/contracts/Giveaway.sol\":570:582  usersData[i] */\n      dup2\n      sload\n      dup2\n      lt\n      tag_48\n      jumpi\n      tag_49\n      tag_50\n      jump\t// in\n    tag_49:\n    tag_48:\n      swap1\n      0x00\n      mstore\n      keccak256(0x00, 0x20)\n      swap1\n      0x04\n      mul\n      add\n        /* \"basic/contracts/Giveaway.sol\":546:582  UserData storage user = usersData[i] */\n      swap1\n      pop\n        /* \"basic/contracts/Giveaway.sol\":646:651  _name */\n      dup7\n        /* \"basic/contracts/Giveaway.sol\":630:653  keccak256(bytes(_name)) */\n      dup1\n      mload\n      swap1\n      0x20\n      add\n      keccak256\n        /* \"basic/contracts/Giveaway.sol\":615:619  user */\n      dup2\n        /* \"basic/contracts/Giveaway.sol\":615:624  user.name */\n      0x00\n      add\n        /* \"basic/contracts/Giveaway.sol\":599:626  keccak256(bytes(user.name)) */\n      mload(0x40)\n      tag_52\n      swap2\n      swap1\n      tag_53\n      jump\t// in\n    tag_52:\n      mload(0x40)\n      dup1\n      swap2\n      sub\n      swap1\n      keccak256\n        /* \"basic/contracts/Giveaway.sol\":599:653  keccak256(bytes(user.name)) == keccak256(bytes(_name)) */\n      eq\n        /* \"basic/contracts/Giveaway.sol\":599:726  keccak256(bytes(user.name)) == keccak256(bytes(_name)) &&... */\n      dup1\n      iszero\n      tag_54\n      jumpi\n      pop\n        /* \"basic/contracts/Giveaway.sol\":718:724  _email */\n      dup6\n        /* \"basic/contracts/Giveaway.sol\":702:726  keccak256(bytes(_email)) */\n      dup1\n      mload\n      swap1\n      0x20\n      add\n      keccak256\n        /* \"basic/contracts/Giveaway.sol\":686:690  user */\n      dup2\n        /* \"basic/contracts/Giveaway.sol\":686:696  user.email */\n      0x01\n      add\n        /* \"basic/contracts/Giveaway.sol\":670:698  keccak256(bytes(user.email)) */\n      mload(0x40)\n      tag_55\n      swap2\n      swap1\n      tag_53\n      jump\t// in\n    tag_55:\n      mload(0x40)\n      dup1\n      swap2\n      sub\n      swap1\n      keccak256\n        /* \"basic/contracts/Giveaway.sol\":670:726  keccak256(bytes(user.email)) == keccak256(bytes(_email)) */\n      eq\n        /* \"basic/contracts/Giveaway.sol\":599:726  keccak256(bytes(user.name)) == keccak256(bytes(_name)) &&... */\n    tag_54:\n        /* \"basic/contracts/Giveaway.sol\":599:775  keccak256(bytes(user.name)) == keccak256(bytes(_name)) &&... */\n      dup1\n      iszero\n      tag_56\n      jumpi\n      pop\n        /* \"basic/contracts/Giveaway.sol\":763:775  _userAddress */\n      dup5\n        /* \"basic/contracts/Giveaway.sol\":743:775  user.userAddress == _userAddress */\n      0xffffffffffffffffffffffffffffffffffffffff\n      and\n        /* \"basic/contracts/Giveaway.sol\":743:747  user */\n      dup2\n        /* \"basic/contracts/Giveaway.sol\":743:759  user.userAddress */\n      0x02\n      add\n      0x00\n      swap1\n      sload\n      swap1\n      0x0100\n      exp\n      swap1\n      div\n      0xffffffffffffffffffffffffffffffffffffffff\n      and\n        /* \"basic/contracts/Giveaway.sol\":743:775  user.userAddress == _userAddress */\n      0xffffffffffffffffffffffffffffffffffffffff\n      and\n      eq\n        /* \"basic/contracts/Giveaway.sol\":599:775  keccak256(bytes(user.name)) == keccak256(bytes(_name)) &&... */\n    tag_56:\n        /* \"basic/contracts/Giveaway.sol\":599:826  keccak256(bytes(user.name)) == keccak256(bytes(_name)) &&... */\n      dup1\n      iszero\n      tag_57\n      jumpi\n      pop\n        /* \"basic/contracts/Giveaway.sol\":813:826  _giveawayCode */\n      dup4\n        /* \"basic/contracts/Giveaway.sol\":792:796  user */\n      dup2\n        /* \"basic/contracts/Giveaway.sol\":792:809  user.giveawayCode */\n      0x03\n      add\n      sload\n        /* \"basic/contracts/Giveaway.sol\":792:826  user.giveawayCode == _giveawayCode */\n      eq\n        /* \"basic/contracts/Giveaway.sol\":599:826  keccak256(bytes(user.name)) == keccak256(bytes(_name)) &&... */\n    tag_57:\n        /* \"basic/contracts/Giveaway.sol\":595:864  if (keccak256(bytes(user.name)) == keccak256(bytes(_name)) &&... */\n      iszero\n      tag_58\n      jumpi\n        /* \"basic/contracts/Giveaway.sol\":848:852  true */\n      0x01\n        /* \"basic/contracts/Giveaway.sol\":841:852  return true */\n      swap3\n      pop\n      pop\n      pop\n      jump(tag_44)\n        /* \"basic/contracts/Giveaway.sol\":595:864  if (keccak256(bytes(user.name)) == keccak256(bytes(_name)) &&... */\n    tag_58:\n        /* \"basic/contracts/Giveaway.sol\":533:873  {... */\n      pop\n        /* \"basic/contracts/Giveaway.sol\":529:532  i++ */\n      dup1\n      dup1\n      tag_59\n      swap1\n      tag_60\n      jump\t// in\n    tag_59:\n      swap2\n      pop\n      pop\n        /* \"basic/contracts/Giveaway.sol\":489:873  for(uint256 i =0; i < usersData.length; i++){... */\n      jump(tag_45)\n    tag_46:\n      pop\n        /* \"basic/contracts/Giveaway.sol\":890:895  false */\n      0x00\n        /* \"basic/contracts/Giveaway.sol\":883:895  return false */\n      swap1\n      pop\n        /* \"basic/contracts/Giveaway.sol\":344:903  function checkUser(string memory _name, string memory _email, address _userAddress, uint256  _giveawayCode) public view returns (bool){... */\n    tag_44:\n      swap5\n      swap4\n      pop\n      pop\n      pop\n      pop\n      jump\t// out\n        /* \"basic/contracts/Giveaway.sol\":1268:1365  function showWinner() public view returns(UserData[] memory){... */\n    tag_23:\n        /* \"basic/contracts/Giveaway.sol\":1310:1327  UserData[] memory */\n      0x60\n        /* \"basic/contracts/Giveaway.sol\":1346:1355  usersData */\n      0x01\n        /* \"basic/contracts/Giveaway.sol\":1339:1355  return usersData */\n      dup1\n      sload\n      dup1\n      0x20\n      mul\n      0x20\n      add\n      mload(0x40)\n      swap1\n      dup2\n      add\n      0x40\n      mstore\n      dup1\n      swap3\n      swap2\n      swap1\n      dup2\n      dup2\n      mstore\n      0x20\n      add\n      0x00\n      swap1\n    tag_62:\n      dup3\n      dup3\n      lt\n      iszero\n      tag_63\n      jumpi\n      dup4\n      dup3\n      swap1\n      0x00\n      mstore\n      keccak256(0x00, 0x20)\n      swap1\n      0x04\n      mul\n      add\n      mload(0x40)\n      dup1\n      0x80\n      add\n      0x40\n      mstore\n      swap1\n      dup2\n      0x00\n      dup3\n      add\n      dup1\n      sload\n      tag_65\n      swap1\n      tag_34\n      jump\t// in\n    tag_65:\n      dup1\n      0x1f\n      add\n      0x20\n      dup1\n      swap2\n      div\n      mul\n      0x20\n      add\n      mload(0x40)\n      swap1\n      dup2\n      add\n      0x40\n      mstore\n      dup1\n      swap3\n      swap2\n      swap1\n      dup2\n      dup2\n      mstore\n      0x20\n      add\n      dup3\n      dup1\n      sload\n      tag_66\n      swap1\n      tag_34\n      jump\t// in\n    tag_66:\n      dup1\n      iszero\n      tag_67\n      jumpi\n      dup1\n      0x1f\n      lt\n      tag_68\n      jumpi\n      0x0100\n      dup1\n      dup4\n      sload\n      div\n      mul\n      dup4\n      mstore\n      swap2\n      0x20\n      add\n      swap2\n      jump(tag_67)\n    tag_68:\n      dup3\n      add\n      swap2\n      swap1\n      0x00\n      mstore\n      keccak256(0x00, 0x20)\n      swap1\n    tag_69:\n      dup2\n      sload\n      dup2\n      mstore\n      swap1\n      0x01\n      add\n      swap1\n      0x20\n      add\n      dup1\n      dup4\n      gt\n      tag_69\n      jumpi\n      dup3\n      swap1\n      sub\n      0x1f\n      and\n      dup3\n      add\n      swap2\n    tag_67:\n      pop\n      pop\n      pop\n      pop\n      pop\n      dup2\n      mstore\n      0x20\n      add\n      0x01\n      dup3\n      add\n      dup1\n      sload\n      tag_70\n      swap1\n      tag_34\n      jump\t// in\n    tag_70:\n      dup1\n      0x1f\n      add\n      0x20\n      dup1\n      swap2\n      div\n      mul\n      0x20\n      add\n      mload(0x40)\n      swap1\n      dup2\n      add\n      0x40\n      mstore\n      dup1\n      swap3\n      swap2\n      swap1\n      dup2\n      dup2\n      mstore\n      0x20\n      add\n      dup3\n      dup1\n      sload\n      tag_71\n      swap1\n      tag_34\n      jump\t// in\n    tag_71:\n      dup1\n      iszero\n      tag_72\n      jumpi\n      dup1\n      0x1f\n      lt\n      tag_73\n      jumpi\n      0x0100\n      dup1\n      dup4\n      sload\n      div\n      mul\n      dup4\n      mstore\n      swap2\n      0x20\n      add\n      swap2\n      jump(tag_72)\n    tag_73:\n      dup3\n      add\n      swap2\n      swap1\n      0x00\n      mstore\n      keccak256(0x00, 0x20)\n      swap1\n    tag_74:\n      dup2\n      sload\n      dup2\n      mstore\n      swap1\n      0x01\n      add\n      swap1\n      0x20\n      add\n      dup1\n      dup4\n      gt\n      tag_74\n      jumpi\n      dup3\n      swap1\n      sub\n      0x1f\n      and\n      dup3\n      add\n      swap2\n    tag_72:\n      pop\n      pop\n      pop\n      pop\n      pop\n      dup2\n      mstore\n      0x20\n      add\n      0x02\n      dup3\n      add\n      0x00\n      swap1\n      sload\n      swap1\n      0x0100\n      exp\n      swap1\n      div\n      0xffffffffffffffffffffffffffffffffffffffff\n      and\n      0xffffffffffffffffffffffffffffffffffffffff\n      and\n      0xffffffffffffffffffffffffffffffffffffffff\n      and\n      dup2\n      mstore\n      0x20\n      add\n      0x03\n      dup3\n      add\n      sload\n      dup2\n      mstore\n      pop\n      pop\n      dup2\n      mstore\n      0x20\n      add\n      swap1\n      0x01\n      add\n      swap1\n      jump(tag_62)\n    tag_63:\n      pop\n      pop\n      pop\n      pop\n      swap1\n      pop\n        /* \"basic/contracts/Giveaway.sol\":1268:1365  function showWinner() public view returns(UserData[] memory){... */\n      swap1\n      jump\t// out\n        /* \"#utility.yul\":7:82   */\n    tag_75:\n        /* \"#utility.yul\":40:46   */\n      0x00\n        /* \"#utility.yul\":73:75   */\n      0x40\n        /* \"#utility.yul\":67:76   */\n      mload\n        /* \"#utility.yul\":57:76   */\n      swap1\n      pop\n        /* \"#utility.yul\":7:82   */\n      swap1\n      jump\t// out\n        /* \"#utility.yul\":88:205   */\n    tag_76:\n        /* \"#utility.yul\":197:198   */\n      0x00\n        /* \"#utility.yul\":194:195   */\n      dup1\n        /* \"#utility.yul\":187:199   */\n      revert\n        /* \"#utility.yul\":211:328   */\n    tag_77:\n        /* \"#utility.yul\":320:321   */\n      0x00\n        /* \"#utility.yul\":317:318   */\n      dup1\n        /* \"#utility.yul\":310:322   */\n      revert\n        /* \"#utility.yul\":334:451   */\n    tag_78:\n        /* \"#utility.yul\":443:444   */\n      0x00\n        /* \"#utility.yul\":440:441   */\n      dup1\n        /* \"#utility.yul\":433:445   */\n      revert\n        /* \"#utility.yul\":457:574   */\n    tag_79:\n        /* \"#utility.yul\":566:567   */\n      0x00\n        /* \"#utility.yul\":563:564   */\n      dup1\n        /* \"#utility.yul\":556:568   */\n      revert\n        /* \"#utility.yul\":580:682   */\n    tag_80:\n        /* \"#utility.yul\":621:627   */\n      0x00\n        /* \"#utility.yul\":672:674   */\n      0x1f\n        /* \"#utility.yul\":668:675   */\n      not\n        /* \"#utility.yul\":663:665   */\n      0x1f\n        /* \"#utility.yul\":656:661   */\n      dup4\n        /* \"#utility.yul\":652:666   */\n      add\n        /* \"#utility.yul\":648:676   */\n      and\n        /* \"#utility.yul\":638:676   */\n      swap1\n      pop\n        /* \"#utility.yul\":580:682   */\n      swap2\n      swap1\n      pop\n      jump\t// out\n        /* \"#utility.yul\":688:868   */\n    tag_81:\n        /* \"#utility.yul\":736:813   */\n      0x4e487b7100000000000000000000000000000000000000000000000000000000\n        /* \"#utility.yul\":733:734   */\n      0x00\n        /* \"#utility.yul\":726:814   */\n      mstore\n        /* \"#utility.yul\":833:837   */\n      0x41\n        /* \"#utility.yul\":830:831   */\n      0x04\n        /* \"#utility.yul\":823:838   */\n      mstore\n        /* \"#utility.yul\":857:861   */\n      0x24\n        /* \"#utility.yul\":854:855   */\n      0x00\n        /* \"#utility.yul\":847:862   */\n      revert\n        /* \"#utility.yul\":874:1155   */\n    tag_82:\n        /* \"#utility.yul\":957:984   */\n      tag_143\n        /* \"#utility.yul\":979:983   */\n      dup3\n        /* \"#utility.yul\":957:984   */\n      tag_80\n      jump\t// in\n    tag_143:\n        /* \"#utility.yul\":949:955   */\n      dup2\n        /* \"#utility.yul\":945:985   */\n      add\n        /* \"#utility.yul\":1087:1093   */\n      dup2\n        /* \"#utility.yul\":1075:1085   */\n      dup2\n        /* \"#utility.yul\":1072:1094   */\n      lt\n        /* \"#utility.yul\":1051:1069   */\n      0xffffffffffffffff\n        /* \"#utility.yul\":1039:1049   */\n      dup3\n        /* \"#utility.yul\":1036:1070   */\n      gt\n        /* \"#utility.yul\":1033:1095   */\n      or\n        /* \"#utility.yul\":1030:1118   */\n      iszero\n      tag_144\n      jumpi\n        /* \"#utility.yul\":1098:1116   */\n      tag_145\n      tag_81\n      jump\t// in\n    tag_145:\n        /* \"#utility.yul\":1030:1118   */\n    tag_144:\n        /* \"#utility.yul\":1138:1148   */\n      dup1\n        /* \"#utility.yul\":1134:1136   */\n      0x40\n        /* \"#utility.yul\":1127:1149   */\n      mstore\n        /* \"#utility.yul\":917:1155   */\n      pop\n        /* \"#utility.yul\":874:1155   */\n      pop\n      pop\n      jump\t// out\n        /* \"#utility.yul\":1161:1290   */\n    tag_83:\n        /* \"#utility.yul\":1195:1201   */\n      0x00\n        /* \"#utility.yul\":1222:1242   */\n      tag_147\n      tag_75\n      jump\t// in\n    tag_147:\n        /* \"#utility.yul\":1212:1242   */\n      swap1\n      pop\n        /* \"#utility.yul\":1251:1284   */\n      tag_148\n        /* \"#utility.yul\":1279:1283   */\n      dup3\n        /* \"#utility.yul\":1271:1277   */\n      dup3\n        /* \"#utility.yul\":1251:1284   */\n      tag_82\n      jump\t// in\n    tag_148:\n        /* \"#utility.yul\":1161:1290   */\n      swap2\n      swap1\n      pop\n      jump\t// out\n        /* \"#utility.yul\":1296:1604   */\n    tag_84:\n        /* \"#utility.yul\":1358:1362   */\n      0x00\n        /* \"#utility.yul\":1448:1466   */\n      0xffffffffffffffff\n        /* \"#utility.yul\":1440:1446   */\n      dup3\n        /* \"#utility.yul\":1437:1467   */\n      gt\n        /* \"#utility.yul\":1434:1490   */\n      iszero\n      tag_150\n      jumpi\n        /* \"#utility.yul\":1470:1488   */\n      tag_151\n      tag_81\n      jump\t// in\n    tag_151:\n        /* \"#utility.yul\":1434:1490   */\n    tag_150:\n        /* \"#utility.yul\":1508:1537   */\n      tag_152\n        /* \"#utility.yul\":1530:1536   */\n      dup3\n        /* \"#utility.yul\":1508:1537   */\n      tag_80\n      jump\t// in\n    tag_152:\n        /* \"#utility.yul\":1500:1537   */\n      swap1\n      pop\n        /* \"#utility.yul\":1592:1596   */\n      0x20\n        /* \"#utility.yul\":1586:1590   */\n      dup2\n        /* \"#utility.yul\":1582:1597   */\n      add\n        /* \"#utility.yul\":1574:1597   */\n      swap1\n      pop\n        /* \"#utility.yul\":1296:1604   */\n      swap2\n      swap1\n      pop\n      jump\t// out\n        /* \"#utility.yul\":1610:1756   */\n    tag_85:\n        /* \"#utility.yul\":1707:1713   */\n      dup3\n        /* \"#utility.yul\":1702:1705   */\n      dup2\n        /* \"#utility.yul\":1697:1700   */\n      dup4\n        /* \"#utility.yul\":1684:1714   */\n      calldatacopy\n        /* \"#utility.yul\":1748:1749   */\n      0x00\n        /* \"#utility.yul\":1739:1745   */\n      dup4\n        /* \"#utility.yul\":1734:1737   */\n      dup4\n        /* \"#utility.yul\":1730:1746   */\n      add\n        /* \"#utility.yul\":1723:1750   */\n      mstore\n        /* \"#utility.yul\":1610:1756   */\n      pop\n      pop\n      pop\n      jump\t// out\n        /* \"#utility.yul\":1762:2187   */\n    tag_86:\n        /* \"#utility.yul\":1840:1845   */\n      0x00\n        /* \"#utility.yul\":1865:1931   */\n      tag_155\n        /* \"#utility.yul\":1881:1930   */\n      tag_156\n        /* \"#utility.yul\":1923:1929   */\n      dup5\n        /* \"#utility.yul\":1881:1930   */\n      tag_84\n      jump\t// in\n    tag_156:\n        /* \"#utility.yul\":1865:1931   */\n      tag_83\n      jump\t// in\n    tag_155:\n        /* \"#utility.yul\":1856:1931   */\n      swap1\n      pop\n        /* \"#utility.yul\":1954:1960   */\n      dup3\n        /* \"#utility.yul\":1947:1952   */\n      dup2\n        /* \"#utility.yul\":1940:1961   */\n      mstore\n        /* \"#utility.yul\":1992:1996   */\n      0x20\n        /* \"#utility.yul\":1985:1990   */\n      dup2\n        /* \"#utility.yul\":1981:1997   */\n      add\n        /* \"#utility.yul\":2030:2033   */\n      dup5\n        /* \"#utility.yul\":2021:2027   */\n      dup5\n        /* \"#utility.yul\":2016:2019   */\n      dup5\n        /* \"#utility.yul\":2012:2028   */\n      add\n        /* \"#utility.yul\":2009:2034   */\n      gt\n        /* \"#utility.yul\":2006:2118   */\n      iszero\n      tag_157\n      jumpi\n        /* \"#utility.yul\":2037:2116   */\n      tag_158\n      tag_79\n      jump\t// in\n    tag_158:\n        /* \"#utility.yul\":2006:2118   */\n    tag_157:\n        /* \"#utility.yul\":2127:2181   */\n      tag_159\n        /* \"#utility.yul\":2174:2180   */\n      dup5\n        /* \"#utility.yul\":2169:2172   */\n      dup3\n        /* \"#utility.yul\":2164:2167   */\n      dup6\n        /* \"#utility.yul\":2127:2181   */\n      tag_85\n      jump\t// in\n    tag_159:\n        /* \"#utility.yul\":1846:2187   */\n      pop\n        /* \"#utility.yul\":1762:2187   */\n      swap4\n      swap3\n      pop\n      pop\n      pop\n      jump\t// out\n        /* \"#utility.yul\":2207:2547   */\n    tag_87:\n        /* \"#utility.yul\":2263:2268   */\n      0x00\n        /* \"#utility.yul\":2312:2315   */\n      dup3\n        /* \"#utility.yul\":2305:2309   */\n      0x1f\n        /* \"#utility.yul\":2297:2303   */\n      dup4\n        /* \"#utility.yul\":2293:2310   */\n      add\n        /* \"#utility.yul\":2289:2316   */\n      slt\n        /* \"#utility.yul\":2279:2401   */\n      tag_161\n      jumpi\n        /* \"#utility.yul\":2320:2399   */\n      tag_162\n      tag_78\n      jump\t// in\n    tag_162:\n        /* \"#utility.yul\":2279:2401   */\n    tag_161:\n        /* \"#utility.yul\":2437:2443   */\n      dup2\n        /* \"#utility.yul\":2424:2444   */\n      calldataload\n        /* \"#utility.yul\":2462:2541   */\n      tag_163\n        /* \"#utility.yul\":2537:2540   */\n      dup5\n        /* \"#utility.yul\":2529:2535   */\n      dup3\n        /* \"#utility.yul\":2522:2526   */\n      0x20\n        /* \"#utility.yul\":2514:2520   */\n      dup7\n        /* \"#utility.yul\":2510:2527   */\n      add\n        /* \"#utility.yul\":2462:2541   */\n      tag_86\n      jump\t// in\n    tag_163:\n        /* \"#utility.yul\":2453:2541   */\n      swap2\n      pop\n        /* \"#utility.yul\":2269:2547   */\n      pop\n        /* \"#utility.yul\":2207:2547   */\n      swap3\n      swap2\n      pop\n      pop\n      jump\t// out\n        /* \"#utility.yul\":2553:2679   */\n    tag_88:\n        /* \"#utility.yul\":2590:2597   */\n      0x00\n        /* \"#utility.yul\":2630:2672   */\n      0xffffffffffffffffffffffffffffffffffffffff\n        /* \"#utility.yul\":2623:2628   */\n      dup3\n        /* \"#utility.yul\":2619:2673   */\n      and\n        /* \"#utility.yul\":2608:2673   */\n      swap1\n      pop\n        /* \"#utility.yul\":2553:2679   */\n      swap2\n      swap1\n      pop\n      jump\t// out\n        /* \"#utility.yul\":2685:2781   */\n    tag_89:\n        /* \"#utility.yul\":2722:2729   */\n      0x00\n        /* \"#utility.yul\":2751:2775   */\n      tag_166\n        /* \"#utility.yul\":2769:2774   */\n      dup3\n        /* \"#utility.yul\":2751:2775   */\n      tag_88\n      jump\t// in\n    tag_166:\n        /* \"#utility.yul\":2740:2775   */\n      swap1\n      pop\n        /* \"#utility.yul\":2685:2781   */\n      swap2\n      swap1\n      pop\n      jump\t// out\n        /* \"#utility.yul\":2787:2909   */\n    tag_90:\n        /* \"#utility.yul\":2860:2884   */\n      tag_168\n        /* \"#utility.yul\":2878:2883   */\n      dup2\n        /* \"#utility.yul\":2860:2884   */\n      tag_89\n      jump\t// in\n    tag_168:\n        /* \"#utility.yul\":2853:2858   */\n      dup2\n        /* \"#utility.yul\":2850:2885   */\n      eq\n        /* \"#utility.yul\":2840:2903   */\n      tag_169\n      jumpi\n        /* \"#utility.yul\":2899:2900   */\n      0x00\n        /* \"#utility.yul\":2896:2897   */\n      dup1\n        /* \"#utility.yul\":2889:2901   */\n      revert\n        /* \"#utility.yul\":2840:2903   */\n    tag_169:\n        /* \"#utility.yul\":2787:2909   */\n      pop\n      jump\t// out\n        /* \"#utility.yul\":2915:3054   */\n    tag_91:\n        /* \"#utility.yul\":2961:2966   */\n      0x00\n        /* \"#utility.yul\":2999:3005   */\n      dup2\n        /* \"#utility.yul\":2986:3006   */\n      calldataload\n        /* \"#utility.yul\":2977:3006   */\n      swap1\n      pop\n        /* \"#utility.yul\":3015:3048   */\n      tag_171\n        /* \"#utility.yul\":3042:3047   */\n      dup2\n        /* \"#utility.yul\":3015:3048   */\n      tag_90\n      jump\t// in\n    tag_171:\n        /* \"#utility.yul\":2915:3054   */\n      swap3\n      swap2\n      pop\n      pop\n      jump\t// out\n        /* \"#utility.yul\":3060:3137   */\n    tag_92:\n        /* \"#utility.yul\":3097:3104   */\n      0x00\n        /* \"#utility.yul\":3126:3131   */\n      dup2\n        /* \"#utility.yul\":3115:3131   */\n      swap1\n      pop\n        /* \"#utility.yul\":3060:3137   */\n      swap2\n      swap1\n      pop\n      jump\t// out\n        /* \"#utility.yul\":3143:3265   */\n    tag_93:\n        /* \"#utility.yul\":3216:3240   */\n      tag_174\n        /* \"#utility.yul\":3234:3239   */\n      dup2\n        /* \"#utility.yul\":3216:3240   */\n      tag_92\n      jump\t// in\n    tag_174:\n        /* \"#utility.yul\":3209:3214   */\n      dup2\n        /* \"#utility.yul\":3206:3241   */\n      eq\n        /* \"#utility.yul\":3196:3259   */\n      tag_175\n      jumpi\n        /* \"#utility.yul\":3255:3256   */\n      0x00\n        /* \"#utility.yul\":3252:3253   */\n      dup1\n        /* \"#utility.yul\":3245:3257   */\n      revert\n        /* \"#utility.yul\":3196:3259   */\n    tag_175:\n        /* \"#utility.yul\":3143:3265   */\n      pop\n      jump\t// out\n        /* \"#utility.yul\":3271:3410   */\n    tag_94:\n        /* \"#utility.yul\":3317:3322   */\n      0x00\n        /* \"#utility.yul\":3355:3361   */\n      dup2\n        /* \"#utility.yul\":3342:3362   */\n      calldataload\n        /* \"#utility.yul\":3333:3362   */\n      swap1\n      pop\n        /* \"#utility.yul\":3371:3404   */\n      tag_177\n        /* \"#utility.yul\":3398:3403   */\n      dup2\n        /* \"#utility.yul\":3371:3404   */\n      tag_93\n      jump\t// in\n    tag_177:\n        /* \"#utility.yul\":3271:3410   */\n      swap3\n      swap2\n      pop\n      pop\n      jump\t// out\n        /* \"#utility.yul\":3416:4541   */\n    tag_9:\n        /* \"#utility.yul\":3522:3528   */\n      0x00\n        /* \"#utility.yul\":3530:3536   */\n      dup1\n        /* \"#utility.yul\":3538:3544   */\n      0x00\n        /* \"#utility.yul\":3546:3552   */\n      dup1\n        /* \"#utility.yul\":3595:3598   */\n      0x80\n        /* \"#utility.yul\":3583:3592   */\n      dup6\n        /* \"#utility.yul\":3574:3581   */\n      dup8\n        /* \"#utility.yul\":3570:3593   */\n      sub\n        /* \"#utility.yul\":3566:3599   */\n      slt\n        /* \"#utility.yul\":3563:3683   */\n      iszero\n      tag_179\n      jumpi\n        /* \"#utility.yul\":3602:3681   */\n      tag_180\n      tag_76\n      jump\t// in\n    tag_180:\n        /* \"#utility.yul\":3563:3683   */\n    tag_179:\n        /* \"#utility.yul\":3750:3751   */\n      0x00\n        /* \"#utility.yul\":3739:3748   */\n      dup6\n        /* \"#utility.yul\":3735:3752   */\n      add\n        /* \"#utility.yul\":3722:3753   */\n      calldataload\n        /* \"#utility.yul\":3780:3798   */\n      0xffffffffffffffff\n        /* \"#utility.yul\":3772:3778   */\n      dup2\n        /* \"#utility.yul\":3769:3799   */\n      gt\n        /* \"#utility.yul\":3766:3883   */\n      iszero\n      tag_181\n      jumpi\n        /* \"#utility.yul\":3802:3881   */\n      tag_182\n      tag_77\n      jump\t// in\n    tag_182:\n        /* \"#utility.yul\":3766:3883   */\n    tag_181:\n        /* \"#utility.yul\":3907:3970   */\n      tag_183\n        /* \"#utility.yul\":3962:3969   */\n      dup8\n        /* \"#utility.yul\":3953:3959   */\n      dup3\n        /* \"#utility.yul\":3942:3951   */\n      dup9\n        /* \"#utility.yul\":3938:3960   */\n      add\n        /* \"#utility.yul\":3907:3970   */\n      tag_87\n      jump\t// in\n    tag_183:\n        /* \"#utility.yul\":3897:3970   */\n      swap5\n      pop\n        /* \"#utility.yul\":3693:3980   */\n      pop\n        /* \"#utility.yul\":4047:4049   */\n      0x20\n        /* \"#utility.yul\":4036:4045   */\n      dup6\n        /* \"#utility.yul\":4032:4050   */\n      add\n        /* \"#utility.yul\":4019:4051   */\n      calldataload\n        /* \"#utility.yul\":4078:4096   */\n      0xffffffffffffffff\n        /* \"#utility.yul\":4070:4076   */\n      dup2\n        /* \"#utility.yul\":4067:4097   */\n      gt\n        /* \"#utility.yul\":4064:4181   */\n      iszero\n      tag_184\n      jumpi\n        /* \"#utility.yul\":4100:4179   */\n      tag_185\n      tag_77\n      jump\t// in\n    tag_185:\n        /* \"#utility.yul\":4064:4181   */\n    tag_184:\n        /* \"#utility.yul\":4205:4268   */\n      tag_186\n        /* \"#utility.yul\":4260:4267   */\n      dup8\n        /* \"#utility.yul\":4251:4257   */\n      dup3\n        /* \"#utility.yul\":4240:4249   */\n      dup9\n        /* \"#utility.yul\":4236:4258   */\n      add\n        /* \"#utility.yul\":4205:4268   */\n      tag_87\n      jump\t// in\n    tag_186:\n        /* \"#utility.yul\":4195:4268   */\n      swap4\n      pop\n        /* \"#utility.yul\":3990:4278   */\n      pop\n        /* \"#utility.yul\":4317:4319   */\n      0x40\n        /* \"#utility.yul\":4343:4396   */\n      tag_187\n        /* \"#utility.yul\":4388:4395   */\n      dup8\n        /* \"#utility.yul\":4379:4385   */\n      dup3\n        /* \"#utility.yul\":4368:4377   */\n      dup9\n        /* \"#utility.yul\":4364:4386   */\n      add\n        /* \"#utility.yul\":4343:4396   */\n      tag_91\n      jump\t// in\n    tag_187:\n        /* \"#utility.yul\":4333:4396   */\n      swap3\n      pop\n        /* \"#utility.yul\":4288:4406   */\n      pop\n        /* \"#utility.yul\":4445:4447   */\n      0x60\n        /* \"#utility.yul\":4471:4524   */\n      tag_188\n        /* \"#utility.yul\":4516:4523   */\n      dup8\n        /* \"#utility.yul\":4507:4513   */\n      dup3\n        /* \"#utility.yul\":4496:4505   */\n      dup9\n        /* \"#utility.yul\":4492:4514   */\n      add\n        /* \"#utility.yul\":4471:4524   */\n      tag_94\n      jump\t// in\n    tag_188:\n        /* \"#utility.yul\":4461:4524   */\n      swap2\n      pop\n        /* \"#utility.yul\":4416:4534   */\n      pop\n        /* \"#utility.yul\":3416:4541   */\n      swap3\n      swap6\n      swap2\n      swap5\n      pop\n      swap3\n      pop\n      jump\t// out\n        /* \"#utility.yul\":4547:4876   */\n    tag_13:\n        /* \"#utility.yul\":4606:4612   */\n      0x00\n        /* \"#utility.yul\":4655:4657   */\n      0x20\n        /* \"#utility.yul\":4643:4652   */\n      dup3\n        /* \"#utility.yul\":4634:4641   */\n      dup5\n        /* \"#utility.yul\":4630:4653   */\n      sub\n        /* \"#utility.yul\":4626:4658   */\n      slt\n        /* \"#utility.yul\":4623:4742   */\n      iszero\n      tag_190\n      jumpi\n        /* \"#utility.yul\":4661:4740   */\n      tag_191\n      tag_76\n      jump\t// in\n    tag_191:\n        /* \"#utility.yul\":4623:4742   */\n    tag_190:\n        /* \"#utility.yul\":4781:4782   */\n      0x00\n        /* \"#utility.yul\":4806:4859   */\n      tag_192\n        /* \"#utility.yul\":4851:4858   */\n      dup5\n        /* \"#utility.yul\":4842:4848   */\n      dup3\n        /* \"#utility.yul\":4831:4840   */\n      dup6\n        /* \"#utility.yul\":4827:4849   */\n      add\n        /* \"#utility.yul\":4806:4859   */\n      tag_94\n      jump\t// in\n    tag_192:\n        /* \"#utility.yul\":4796:4859   */\n      swap2\n      pop\n        /* \"#utility.yul\":4752:4869   */\n      pop\n        /* \"#utility.yul\":4547:4876   */\n      swap3\n      swap2\n      pop\n      pop\n      jump\t// out\n        /* \"#utility.yul\":4882:4981   */\n    tag_95:\n        /* \"#utility.yul\":4934:4940   */\n      0x00\n        /* \"#utility.yul\":4968:4973   */\n      dup2\n        /* \"#utility.yul\":4962:4974   */\n      mload\n        /* \"#utility.yul\":4952:4974   */\n      swap1\n      pop\n        /* \"#utility.yul\":4882:4981   */\n      swap2\n      swap1\n      pop\n      jump\t// out\n        /* \"#utility.yul\":4987:5156   */\n    tag_96:\n        /* \"#utility.yul\":5071:5082   */\n      0x00\n        /* \"#utility.yul\":5105:5111   */\n      dup3\n        /* \"#utility.yul\":5100:5103   */\n      dup3\n        /* \"#utility.yul\":5093:5112   */\n      mstore\n        /* \"#utility.yul\":5145:5149   */\n      0x20\n        /* \"#utility.yul\":5140:5143   */\n      dup3\n        /* \"#utility.yul\":5136:5150   */\n      add\n        /* \"#utility.yul\":5121:5150   */\n      swap1\n      pop\n        /* \"#utility.yul\":4987:5156   */\n      swap3\n      swap2\n      pop\n      pop\n      jump\t// out\n        /* \"#utility.yul\":5162:5408   */\n    tag_97:\n        /* \"#utility.yul\":5243:5244   */\n      0x00\n        /* \"#utility.yul\":5253:5366   */\n    tag_196:\n        /* \"#utility.yul\":5267:5273   */\n      dup4\n        /* \"#utility.yul\":5264:5265   */\n      dup2\n        /* \"#utility.yul\":5261:5274   */\n      lt\n        /* \"#utility.yul\":5253:5366   */\n      iszero\n      tag_198\n      jumpi\n        /* \"#utility.yul\":5352:5353   */\n      dup1\n        /* \"#utility.yul\":5347:5350   */\n      dup3\n        /* \"#utility.yul\":5343:5354   */\n      add\n        /* \"#utility.yul\":5337:5355   */\n      mload\n        /* \"#utility.yul\":5333:5334   */\n      dup2\n        /* \"#utility.yul\":5328:5331   */\n      dup5\n        /* \"#utility.yul\":5324:5335   */\n      add\n        /* \"#utility.yul\":5317:5356   */\n      mstore\n        /* \"#utility.yul\":5289:5291   */\n      0x20\n        /* \"#utility.yul\":5286:5287   */\n      dup2\n        /* \"#utility.yul\":5282:5292   */\n      add\n        /* \"#utility.yul\":5277:5292   */\n      swap1\n      pop\n        /* \"#utility.yul\":5253:5366   */\n      jump(tag_196)\n    tag_198:\n        /* \"#utility.yul\":5400:5401   */\n      0x00\n        /* \"#utility.yul\":5391:5397   */\n      dup5\n        /* \"#utility.yul\":5386:5389   */\n      dup5\n        /* \"#utility.yul\":5382:5398   */\n      add\n        /* \"#utility.yul\":5375:5402   */\n      mstore\n        /* \"#utility.yul\":5224:5408   */\n      pop\n        /* \"#utility.yul\":5162:5408   */\n      pop\n      pop\n      pop\n      jump\t// out\n        /* \"#utility.yul\":5414:5791   */\n    tag_98:\n        /* \"#utility.yul\":5502:5505   */\n      0x00\n        /* \"#utility.yul\":5530:5569   */\n      tag_200\n        /* \"#utility.yul\":5563:5568   */\n      dup3\n        /* \"#utility.yul\":5530:5569   */\n      tag_95\n      jump\t// in\n    tag_200:\n        /* \"#utility.yul\":5585:5656   */\n      tag_201\n        /* \"#utility.yul\":5649:5655   */\n      dup2\n        /* \"#utility.yul\":5644:5647   */\n      dup6\n        /* \"#utility.yul\":5585:5656   */\n      tag_96\n      jump\t// in\n    tag_201:\n        /* \"#utility.yul\":5578:5656   */\n      swap4\n      pop\n        /* \"#utility.yul\":5665:5730   */\n      tag_202\n        /* \"#utility.yul\":5723:5729   */\n      dup2\n        /* \"#utility.yul\":5718:5721   */\n      dup6\n        /* \"#utility.yul\":5711:5715   */\n      0x20\n        /* \"#utility.yul\":5704:5709   */\n      dup7\n        /* \"#utility.yul\":5700:5716   */\n      add\n        /* \"#utility.yul\":5665:5730   */\n      tag_97\n      jump\t// in\n    tag_202:\n        /* \"#utility.yul\":5755:5784   */\n      tag_203\n        /* \"#utility.yul\":5777:5783   */\n      dup2\n        /* \"#utility.yul\":5755:5784   */\n      tag_80\n      jump\t// in\n    tag_203:\n        /* \"#utility.yul\":5750:5753   */\n      dup5\n        /* \"#utility.yul\":5746:5785   */\n      add\n        /* \"#utility.yul\":5739:5785   */\n      swap2\n      pop\n        /* \"#utility.yul\":5506:5791   */\n      pop\n        /* \"#utility.yul\":5414:5791   */\n      swap3\n      swap2\n      pop\n      pop\n      jump\t// out\n        /* \"#utility.yul\":5797:5915   */\n    tag_99:\n        /* \"#utility.yul\":5884:5908   */\n      tag_205\n        /* \"#utility.yul\":5902:5907   */\n      dup2\n        /* \"#utility.yul\":5884:5908   */\n      tag_89\n      jump\t// in\n    tag_205:\n        /* \"#utility.yul\":5879:5882   */\n      dup3\n        /* \"#utility.yul\":5872:5909   */\n      mstore\n        /* \"#utility.yul\":5797:5915   */\n      pop\n      pop\n      jump\t// out\n        /* \"#utility.yul\":5921:6039   */\n    tag_100:\n        /* \"#utility.yul\":6008:6032   */\n      tag_207\n        /* \"#utility.yul\":6026:6031   */\n      dup2\n        /* \"#utility.yul\":6008:6032   */\n      tag_92\n      jump\t// in\n    tag_207:\n        /* \"#utility.yul\":6003:6006   */\n      dup3\n        /* \"#utility.yul\":5996:6033   */\n      mstore\n        /* \"#utility.yul\":5921:6039   */\n      pop\n      pop\n      jump\t// out\n        /* \"#utility.yul\":6045:6780   */\n    tag_16:\n        /* \"#utility.yul\":6262:6266   */\n      0x00\n        /* \"#utility.yul\":6300:6303   */\n      0x80\n        /* \"#utility.yul\":6289:6298   */\n      dup3\n        /* \"#utility.yul\":6285:6304   */\n      add\n        /* \"#utility.yul\":6277:6304   */\n      swap1\n      pop\n        /* \"#utility.yul\":6350:6359   */\n      dup2\n        /* \"#utility.yul\":6344:6348   */\n      dup2\n        /* \"#utility.yul\":6340:6360   */\n      sub\n        /* \"#utility.yul\":6336:6337   */\n      0x00\n        /* \"#utility.yul\":6325:6334   */\n      dup4\n        /* \"#utility.yul\":6321:6338   */\n      add\n        /* \"#utility.yul\":6314:6361   */\n      mstore\n        /* \"#utility.yul\":6378:6456   */\n      tag_209\n        /* \"#utility.yul\":6451:6455   */\n      dup2\n        /* \"#utility.yul\":6442:6448   */\n      dup8\n        /* \"#utility.yul\":6378:6456   */\n      tag_98\n      jump\t// in\n    tag_209:\n        /* \"#utility.yul\":6370:6456   */\n      swap1\n      pop\n        /* \"#utility.yul\":6503:6512   */\n      dup2\n        /* \"#utility.yul\":6497:6501   */\n      dup2\n        /* \"#utility.yul\":6493:6513   */\n      sub\n        /* \"#utility.yul\":6488:6490   */\n      0x20\n        /* \"#utility.yul\":6477:6486   */\n      dup4\n        /* \"#utility.yul\":6473:6491   */\n      add\n        /* \"#utility.yul\":6466:6514   */\n      mstore\n        /* \"#utility.yul\":6531:6609   */\n      tag_210\n        /* \"#utility.yul\":6604:6608   */\n      dup2\n        /* \"#utility.yul\":6595:6601   */\n      dup7\n        /* \"#utility.yul\":6531:6609   */\n      tag_98\n      jump\t// in\n    tag_210:\n        /* \"#utility.yul\":6523:6609   */\n      swap1\n      pop\n        /* \"#utility.yul\":6619:6691   */\n      tag_211\n        /* \"#utility.yul\":6687:6689   */\n      0x40\n        /* \"#utility.yul\":6676:6685   */\n      dup4\n        /* \"#utility.yul\":6672:6690   */\n      add\n        /* \"#utility.yul\":6663:6669   */\n      dup6\n        /* \"#utility.yul\":6619:6691   */\n      tag_99\n      jump\t// in\n    tag_211:\n        /* \"#utility.yul\":6701:6773   */\n      tag_212\n        /* \"#utility.yul\":6769:6771   */\n      0x60\n        /* \"#utility.yul\":6758:6767   */\n      dup4\n        /* \"#utility.yul\":6754:6772   */\n      add\n        /* \"#utility.yul\":6745:6751   */\n      dup5\n        /* \"#utility.yul\":6701:6773   */\n      tag_100\n      jump\t// in\n    tag_212:\n        /* \"#utility.yul\":6045:6780   */\n      swap6\n      swap5\n      pop\n      pop\n      pop\n      pop\n      pop\n      jump\t// out\n        /* \"#utility.yul\":6786:6876   */\n    tag_101:\n        /* \"#utility.yul\":6820:6827   */\n      0x00\n        /* \"#utility.yul\":6863:6868   */\n      dup2\n        /* \"#utility.yul\":6856:6869   */\n      iszero\n        /* \"#utility.yul\":6849:6870   */\n      iszero\n        /* \"#utility.yul\":6838:6870   */\n      swap1\n      pop\n        /* \"#utility.yul\":6786:6876   */\n      swap2\n      swap1\n      pop\n      jump\t// out\n        /* \"#utility.yul\":6882:6991   */\n    tag_102:\n        /* \"#utility.yul\":6963:6984   */\n      tag_215\n        /* \"#utility.yul\":6978:6983   */\n      dup2\n        /* \"#utility.yul\":6963:6984   */\n      tag_101\n      jump\t// in\n    tag_215:\n        /* \"#utility.yul\":6958:6961   */\n      dup3\n        /* \"#utility.yul\":6951:6985   */\n      mstore\n        /* \"#utility.yul\":6882:6991   */\n      pop\n      pop\n      jump\t// out\n        /* \"#utility.yul\":6997:7207   */\n    tag_21:\n        /* \"#utility.yul\":7084:7088   */\n      0x00\n        /* \"#utility.yul\":7122:7124   */\n      0x20\n        /* \"#utility.yul\":7111:7120   */\n      dup3\n        /* \"#utility.yul\":7107:7125   */\n      add\n        /* \"#utility.yul\":7099:7125   */\n      swap1\n      pop\n        /* \"#utility.yul\":7135:7200   */\n      tag_217\n        /* \"#utility.yul\":7197:7198   */\n      0x00\n        /* \"#utility.yul\":7186:7195   */\n      dup4\n        /* \"#utility.yul\":7182:7199   */\n      add\n        /* \"#utility.yul\":7173:7179   */\n      dup5\n        /* \"#utility.yul\":7135:7200   */\n      tag_102\n      jump\t// in\n    tag_217:\n        /* \"#utility.yul\":6997:7207   */\n      swap3\n      swap2\n      pop\n      pop\n      jump\t// out\n        /* \"#utility.yul\":7213:7351   */\n    tag_103:\n        /* \"#utility.yul\":7304:7310   */\n      0x00\n        /* \"#utility.yul\":7338:7343   */\n      dup2\n        /* \"#utility.yul\":7332:7344   */\n      mload\n        /* \"#utility.yul\":7322:7344   */\n      swap1\n      pop\n        /* \"#utility.yul\":7213:7351   */\n      swap2\n      swap1\n      pop\n      jump\t// out\n        /* \"#utility.yul\":7357:7565   */\n    tag_104:\n        /* \"#utility.yul\":7480:7491   */\n      0x00\n        /* \"#utility.yul\":7514:7520   */\n      dup3\n        /* \"#utility.yul\":7509:7512   */\n      dup3\n        /* \"#utility.yul\":7502:7521   */\n      mstore\n        /* \"#utility.yul\":7554:7558   */\n      0x20\n        /* \"#utility.yul\":7549:7552   */\n      dup3\n        /* \"#utility.yul\":7545:7559   */\n      add\n        /* \"#utility.yul\":7530:7559   */\n      swap1\n      pop\n        /* \"#utility.yul\":7357:7565   */\n      swap3\n      swap2\n      pop\n      pop\n      jump\t// out\n        /* \"#utility.yul\":7571:7727   */\n    tag_105:\n        /* \"#utility.yul\":7662:7666   */\n      0x00\n        /* \"#utility.yul\":7685:7688   */\n      dup2\n        /* \"#utility.yul\":7677:7688   */\n      swap1\n      pop\n        /* \"#utility.yul\":7715:7719   */\n      0x20\n        /* \"#utility.yul\":7710:7713   */\n      dup3\n        /* \"#utility.yul\":7706:7720   */\n      add\n        /* \"#utility.yul\":7698:7720   */\n      swap1\n      pop\n        /* \"#utility.yul\":7571:7727   */\n      swap2\n      swap1\n      pop\n      jump\t// out\n        /* \"#utility.yul\":7733:7892   */\n    tag_106:\n        /* \"#utility.yul\":7807:7818   */\n      0x00\n        /* \"#utility.yul\":7841:7847   */\n      dup3\n        /* \"#utility.yul\":7836:7839   */\n      dup3\n        /* \"#utility.yul\":7829:7848   */\n      mstore\n        /* \"#utility.yul\":7881:7885   */\n      0x20\n        /* \"#utility.yul\":7876:7879   */\n      dup3\n        /* \"#utility.yul\":7872:7886   */\n      add\n        /* \"#utility.yul\":7857:7886   */\n      swap1\n      pop\n        /* \"#utility.yul\":7733:7892   */\n      swap3\n      swap2\n      pop\n      pop\n      jump\t// out\n        /* \"#utility.yul\":7898:8255   */\n    tag_107:\n        /* \"#utility.yul\":7976:7979   */\n      0x00\n        /* \"#utility.yul\":8004:8043   */\n      tag_223\n        /* \"#utility.yul\":8037:8042   */\n      dup3\n        /* \"#utility.yul\":8004:8043   */\n      tag_95\n      jump\t// in\n    tag_223:\n        /* \"#utility.yul\":8059:8120   */\n      tag_224\n        /* \"#utility.yul\":8113:8119   */\n      dup2\n        /* \"#utility.yul\":8108:8111   */\n      dup6\n        /* \"#utility.yul\":8059:8120   */\n      tag_106\n      jump\t// in\n    tag_224:\n        /* \"#utility.yul\":8052:8120   */\n      swap4\n      pop\n        /* \"#utility.yul\":8129:8194   */\n      tag_225\n        /* \"#utility.yul\":8187:8193   */\n      dup2\n        /* \"#utility.yul\":8182:8185   */\n      dup6\n        /* \"#utility.yul\":8175:8179   */\n      0x20\n        /* \"#utility.yul\":8168:8173   */\n      dup7\n        /* \"#utility.yul\":8164:8180   */\n      add\n        /* \"#utility.yul\":8129:8194   */\n      tag_97\n      jump\t// in\n    tag_225:\n        /* \"#utility.yul\":8219:8248   */\n      tag_226\n        /* \"#utility.yul\":8241:8247   */\n      dup2\n        /* \"#utility.yul\":8219:8248   */\n      tag_80\n      jump\t// in\n    tag_226:\n        /* \"#utility.yul\":8214:8217   */\n      dup5\n        /* \"#utility.yul\":8210:8249   */\n      add\n        /* \"#utility.yul\":8203:8249   */\n      swap2\n      pop\n        /* \"#utility.yul\":7980:8255   */\n      pop\n        /* \"#utility.yul\":7898:8255   */\n      swap3\n      swap2\n      pop\n      pop\n      jump\t// out\n        /* \"#utility.yul\":8261:8369   */\n    tag_108:\n        /* \"#utility.yul\":8338:8362   */\n      tag_228\n        /* \"#utility.yul\":8356:8361   */\n      dup2\n        /* \"#utility.yul\":8338:8362   */\n      tag_89\n      jump\t// in\n    tag_228:\n        /* \"#utility.yul\":8333:8336   */\n      dup3\n        /* \"#utility.yul\":8326:8363   */\n      mstore\n        /* \"#utility.yul\":8261:8369   */\n      pop\n      pop\n      jump\t// out\n        /* \"#utility.yul\":8375:8483   */\n    tag_109:\n        /* \"#utility.yul\":8452:8476   */\n      tag_230\n        /* \"#utility.yul\":8470:8475   */\n      dup2\n        /* \"#utility.yul\":8452:8476   */\n      tag_92\n      jump\t// in\n    tag_230:\n        /* \"#utility.yul\":8447:8450   */\n      dup3\n        /* \"#utility.yul\":8440:8477   */\n      mstore\n        /* \"#utility.yul\":8375:8483   */\n      pop\n      pop\n      jump\t// out\n        /* \"#utility.yul\":8549:9578   */\n    tag_110:\n        /* \"#utility.yul\":8656:8659   */\n      0x00\n        /* \"#utility.yul\":8692:8696   */\n      0x80\n        /* \"#utility.yul\":8687:8690   */\n      dup4\n        /* \"#utility.yul\":8683:8697   */\n      add\n        /* \"#utility.yul\":8779:8783   */\n      0x00\n        /* \"#utility.yul\":8772:8777   */\n      dup4\n        /* \"#utility.yul\":8768:8784   */\n      add\n        /* \"#utility.yul\":8762:8785   */\n      mload\n        /* \"#utility.yul\":8832:8835   */\n      dup5\n        /* \"#utility.yul\":8826:8830   */\n      dup3\n        /* \"#utility.yul\":8822:8836   */\n      sub\n        /* \"#utility.yul\":8815:8819   */\n      0x00\n        /* \"#utility.yul\":8810:8813   */\n      dup7\n        /* \"#utility.yul\":8806:8820   */\n      add\n        /* \"#utility.yul\":8799:8837   */\n      mstore\n        /* \"#utility.yul\":8858:8931   */\n      tag_232\n        /* \"#utility.yul\":8926:8930   */\n      dup3\n        /* \"#utility.yul\":8912:8924   */\n      dup3\n        /* \"#utility.yul\":8858:8931   */\n      tag_107\n      jump\t// in\n    tag_232:\n        /* \"#utility.yul\":8850:8931   */\n      swap2\n      pop\n        /* \"#utility.yul\":8707:8942   */\n      pop\n        /* \"#utility.yul\":9025:9029   */\n      0x20\n        /* \"#utility.yul\":9018:9023   */\n      dup4\n        /* \"#utility.yul\":9014:9030   */\n      add\n        /* \"#utility.yul\":9008:9031   */\n      mload\n        /* \"#utility.yul\":9078:9081   */\n      dup5\n        /* \"#utility.yul\":9072:9076   */\n      dup3\n        /* \"#utility.yul\":9068:9082   */\n      sub\n        /* \"#utility.yul\":9061:9065   */\n      0x20\n        /* \"#utility.yul\":9056:9059   */\n      dup7\n        /* \"#utility.yul\":9052:9066   */\n      add\n        /* \"#utility.yul\":9045:9083   */\n      mstore\n        /* \"#utility.yul\":9104:9177   */\n      tag_233\n        /* \"#utility.yul\":9172:9176   */\n      dup3\n        /* \"#utility.yul\":9158:9170   */\n      dup3\n        /* \"#utility.yul\":9104:9177   */\n      tag_107\n      jump\t// in\n    tag_233:\n        /* \"#utility.yul\":9096:9177   */\n      swap2\n      pop\n        /* \"#utility.yul\":8952:9188   */\n      pop\n        /* \"#utility.yul\":9277:9281   */\n      0x40\n        /* \"#utility.yul\":9270:9275   */\n      dup4\n        /* \"#utility.yul\":9266:9282   */\n      add\n        /* \"#utility.yul\":9260:9283   */\n      mload\n        /* \"#utility.yul\":9296:9359   */\n      tag_234\n        /* \"#utility.yul\":9353:9357   */\n      0x40\n        /* \"#utility.yul\":9348:9351   */\n      dup7\n        /* \"#utility.yul\":9344:9358   */\n      add\n        /* \"#utility.yul\":9330:9342   */\n      dup3\n        /* \"#utility.yul\":9296:9359   */\n      tag_108\n      jump\t// in\n    tag_234:\n        /* \"#utility.yul\":9198:9369   */\n      pop\n        /* \"#utility.yul\":9459:9463   */\n      0x60\n        /* \"#utility.yul\":9452:9457   */\n      dup4\n        /* \"#utility.yul\":9448:9464   */\n      add\n        /* \"#utility.yul\":9442:9465   */\n      mload\n        /* \"#utility.yul\":9478:9541   */\n      tag_235\n        /* \"#utility.yul\":9535:9539   */\n      0x60\n        /* \"#utility.yul\":9530:9533   */\n      dup7\n        /* \"#utility.yul\":9526:9540   */\n      add\n        /* \"#utility.yul\":9512:9524   */\n      dup3\n        /* \"#utility.yul\":9478:9541   */\n      tag_109\n      jump\t// in\n    tag_235:\n        /* \"#utility.yul\":9379:9551   */\n      pop\n        /* \"#utility.yul\":9568:9572   */\n      dup1\n        /* \"#utility.yul\":9561:9572   */\n      swap2\n      pop\n        /* \"#utility.yul\":8661:9578   */\n      pop\n        /* \"#utility.yul\":8549:9578   */\n      swap3\n      swap2\n      pop\n      pop\n      jump\t// out\n        /* \"#utility.yul\":9584:9836   */\n    tag_111:\n        /* \"#utility.yul\":9701:9711   */\n      0x00\n        /* \"#utility.yul\":9736:9830   */\n      tag_237\n        /* \"#utility.yul\":9826:9829   */\n      dup4\n        /* \"#utility.yul\":9818:9824   */\n      dup4\n        /* \"#utility.yul\":9736:9830   */\n      tag_110\n      jump\t// in\n    tag_237:\n        /* \"#utility.yul\":9722:9830   */\n      swap1\n      pop\n        /* \"#utility.yul\":9584:9836   */\n      swap3\n      swap2\n      pop\n      pop\n      jump\t// out\n        /* \"#utility.yul\":9842:9979   */\n    tag_112:\n        /* \"#utility.yul\":9936:9940   */\n      0x00\n        /* \"#utility.yul\":9968:9972   */\n      0x20\n        /* \"#utility.yul\":9963:9966   */\n      dup3\n        /* \"#utility.yul\":9959:9973   */\n      add\n        /* \"#utility.yul\":9951:9973   */\n      swap1\n      pop\n        /* \"#utility.yul\":9842:9979   */\n      swap2\n      swap1\n      pop\n      jump\t// out\n        /* \"#utility.yul\":10049:11152   */\n    tag_113:\n        /* \"#utility.yul\":10216:10219   */\n      0x00\n        /* \"#utility.yul\":10245:10323   */\n      tag_240\n        /* \"#utility.yul\":10317:10322   */\n      dup3\n        /* \"#utility.yul\":10245:10323   */\n      tag_103\n      jump\t// in\n    tag_240:\n        /* \"#utility.yul\":10339:10449   */\n      tag_241\n        /* \"#utility.yul\":10442:10448   */\n      dup2\n        /* \"#utility.yul\":10437:10440   */\n      dup6\n        /* \"#utility.yul\":10339:10449   */\n      tag_104\n      jump\t// in\n    tag_241:\n        /* \"#utility.yul\":10332:10449   */\n      swap4\n      pop\n        /* \"#utility.yul\":10475:10478   */\n      dup4\n        /* \"#utility.yul\":10520:10524   */\n      0x20\n        /* \"#utility.yul\":10512:10518   */\n      dup3\n        /* \"#utility.yul\":10508:10525   */\n      mul\n        /* \"#utility.yul\":10503:10506   */\n      dup6\n        /* \"#utility.yul\":10499:10526   */\n      add\n        /* \"#utility.yul\":10550:10630   */\n      tag_242\n        /* \"#utility.yul\":10624:10629   */\n      dup6\n        /* \"#utility.yul\":10550:10630   */\n      tag_105\n      jump\t// in\n    tag_242:\n        /* \"#utility.yul\":10653:10660   */\n      dup1\n        /* \"#utility.yul\":10684:10685   */\n      0x00\n        /* \"#utility.yul\":10669:11107   */\n    tag_243:\n        /* \"#utility.yul\":10694:10700   */\n      dup6\n        /* \"#utility.yul\":10691:10692   */\n      dup2\n        /* \"#utility.yul\":10688:10701   */\n      lt\n        /* \"#utility.yul\":10669:11107   */\n      iszero\n      tag_245\n      jumpi\n        /* \"#utility.yul\":10765:10774   */\n      dup5\n        /* \"#utility.yul\":10759:10763   */\n      dup5\n        /* \"#utility.yul\":10755:10775   */\n      sub\n        /* \"#utility.yul\":10750:10753   */\n      dup10\n        /* \"#utility.yul\":10743:10776   */\n      mstore\n        /* \"#utility.yul\":10816:10822   */\n      dup2\n        /* \"#utility.yul\":10810:10823   */\n      mload\n        /* \"#utility.yul\":10844:10956   */\n      tag_246\n        /* \"#utility.yul\":10951:10955   */\n      dup6\n        /* \"#utility.yul\":10936:10949   */\n      dup3\n        /* \"#utility.yul\":10844:10956   */\n      tag_111\n      jump\t// in\n    tag_246:\n        /* \"#utility.yul\":10836:10956   */\n      swap5\n      pop\n        /* \"#utility.yul\":10979:11063   */\n      tag_247\n        /* \"#utility.yul\":11056:11062   */\n      dup4\n        /* \"#utility.yul\":10979:11063   */\n      tag_112\n      jump\t// in\n    tag_247:\n        /* \"#utility.yul\":10969:11063   */\n      swap3\n      pop\n        /* \"#utility.yul\":11092:11096   */\n      0x20\n        /* \"#utility.yul\":11087:11090   */\n      dup11\n        /* \"#utility.yul\":11083:11097   */\n      add\n        /* \"#utility.yul\":11076:11097   */\n      swap10\n      pop\n        /* \"#utility.yul\":10729:11107   */\n      pop\n        /* \"#utility.yul\":10716:10717   */\n      0x01\n        /* \"#utility.yul\":10713:10714   */\n      dup2\n        /* \"#utility.yul\":10709:10718   */\n      add\n        /* \"#utility.yul\":10704:10718   */\n      swap1\n      pop\n        /* \"#utility.yul\":10669:11107   */\n      jump(tag_243)\n    tag_245:\n        /* \"#utility.yul\":10673:10687   */\n      pop\n        /* \"#utility.yul\":11123:11127   */\n      dup3\n        /* \"#utility.yul\":11116:11127   */\n      swap8\n      pop\n        /* \"#utility.yul\":11143:11146   */\n      dup8\n        /* \"#utility.yul\":11136:11146   */\n      swap6\n      pop\n        /* \"#utility.yul\":10221:11152   */\n      pop\n      pop\n      pop\n      pop\n      pop\n        /* \"#utility.yul\":10049:11152   */\n      swap3\n      swap2\n      pop\n      pop\n      jump\t// out\n        /* \"#utility.yul\":11158:11627   */\n    tag_25:\n        /* \"#utility.yul\":11349:11353   */\n      0x00\n        /* \"#utility.yul\":11387:11389   */\n      0x20\n        /* \"#utility.yul\":11376:11385   */\n      dup3\n        /* \"#utility.yul\":11372:11390   */\n      add\n        /* \"#utility.yul\":11364:11390   */\n      swap1\n      pop\n        /* \"#utility.yul\":11436:11445   */\n      dup2\n        /* \"#utility.yul\":11430:11434   */\n      dup2\n        /* \"#utility.yul\":11426:11446   */\n      sub\n        /* \"#utility.yul\":11422:11423   */\n      0x00\n        /* \"#utility.yul\":11411:11420   */\n      dup4\n        /* \"#utility.yul\":11407:11424   */\n      add\n        /* \"#utility.yul\":11400:11447   */\n      mstore\n        /* \"#utility.yul\":11464:11620   */\n      tag_249\n        /* \"#utility.yul\":11615:11619   */\n      dup2\n        /* \"#utility.yul\":11606:11612   */\n      dup5\n        /* \"#utility.yul\":11464:11620   */\n      tag_113\n      jump\t// in\n    tag_249:\n        /* \"#utility.yul\":11456:11620   */\n      swap1\n      pop\n        /* \"#utility.yul\":11158:11627   */\n      swap3\n      swap2\n      pop\n      pop\n      jump\t// out\n        /* \"#utility.yul\":11633:11813   */\n    tag_114:\n        /* \"#utility.yul\":11681:11758   */\n      0x4e487b7100000000000000000000000000000000000000000000000000000000\n        /* \"#utility.yul\":11678:11679   */\n      0x00\n        /* \"#utility.yul\":11671:11759   */\n      mstore\n        /* \"#utility.yul\":11778:11782   */\n      0x22\n        /* \"#utility.yul\":11775:11776   */\n      0x04\n        /* \"#utility.yul\":11768:11783   */\n      mstore\n        /* \"#utility.yul\":11802:11806   */\n      0x24\n        /* \"#utility.yul\":11799:11800   */\n      0x00\n        /* \"#utility.yul\":11792:11807   */\n      revert\n        /* \"#utility.yul\":11819:12139   */\n    tag_34:\n        /* \"#utility.yul\":11863:11869   */\n      0x00\n        /* \"#utility.yul\":11900:11901   */\n      0x02\n        /* \"#utility.yul\":11894:11898   */\n      dup3\n        /* \"#utility.yul\":11890:11902   */\n      div\n        /* \"#utility.yul\":11880:11902   */\n      swap1\n      pop\n        /* \"#utility.yul\":11947:11948   */\n      0x01\n        /* \"#utility.yul\":11941:11945   */\n      dup3\n        /* \"#utility.yul\":11937:11949   */\n      and\n        /* \"#utility.yul\":11968:11986   */\n      dup1\n        /* \"#utility.yul\":11958:12039   */\n      tag_252\n      jumpi\n        /* \"#utility.yul\":12024:12028   */\n      0x7f\n        /* \"#utility.yul\":12016:12022   */\n      dup3\n        /* \"#utility.yul\":12012:12029   */\n      and\n        /* \"#utility.yul\":12002:12029   */\n      swap2\n      pop\n        /* \"#utility.yul\":11958:12039   */\n    tag_252:\n        /* \"#utility.yul\":12086:12088   */\n      0x20\n        /* \"#utility.yul\":12078:12084   */\n      dup3\n        /* \"#utility.yul\":12075:12089   */\n      lt\n        /* \"#utility.yul\":12055:12073   */\n      dup2\n        /* \"#utility.yul\":12052:12090   */\n      sub\n        /* \"#utility.yul\":12049:12133   */\n      tag_253\n      jumpi\n        /* \"#utility.yul\":12105:12123   */\n      tag_254\n      tag_114\n      jump\t// in\n    tag_254:\n        /* \"#utility.yul\":12049:12133   */\n    tag_253:\n        /* \"#utility.yul\":11870:12139   */\n      pop\n        /* \"#utility.yul\":11819:12139   */\n      swap2\n      swap1\n      pop\n      jump\t// out\n        /* \"#utility.yul\":12145:12286   */\n    tag_115:\n        /* \"#utility.yul\":12194:12198   */\n      0x00\n        /* \"#utility.yul\":12217:12220   */\n      dup2\n        /* \"#utility.yul\":12209:12220   */\n      swap1\n      pop\n        /* \"#utility.yul\":12240:12243   */\n      dup2\n        /* \"#utility.yul\":12237:12238   */\n      0x00\n        /* \"#utility.yul\":12230:12244   */\n      mstore\n        /* \"#utility.yul\":12274:12278   */\n      0x20\n        /* \"#utility.yul\":12271:12272   */\n      0x00\n        /* \"#utility.yul\":12261:12279   */\n      keccak256\n        /* \"#utility.yul\":12253:12279   */\n      swap1\n      pop\n        /* \"#utility.yul\":12145:12286   */\n      swap2\n      swap1\n      pop\n      jump\t// out\n        /* \"#utility.yul\":12292:12385   */\n    tag_116:\n        /* \"#utility.yul\":12329:12335   */\n      0x00\n        /* \"#utility.yul\":12376:12378   */\n      0x20\n        /* \"#utility.yul\":12371:12373   */\n      0x1f\n        /* \"#utility.yul\":12364:12369   */\n      dup4\n        /* \"#utility.yul\":12360:12374   */\n      add\n        /* \"#utility.yul\":12356:12379   */\n      div\n        /* \"#utility.yul\":12346:12379   */\n      swap1\n      pop\n        /* \"#utility.yul\":12292:12385   */\n      swap2\n      swap1\n      pop\n      jump\t// out\n        /* \"#utility.yul\":12391:12506   */\n    tag_117:\n        /* \"#utility.yul\":12435:12443   */\n      0x00\n        /* \"#utility.yul\":12493:12497   */\n      dup2\n        /* \"#utility.yul\":12490:12491   */\n      0x02\n        /* \"#utility.yul\":12486:12498   */\n      exp\n        /* \"#utility.yul\":12479:12484   */\n      dup4\n        /* \"#utility.yul\":12475:12499   */\n      mul\n        /* \"#utility.yul\":12454:12499   */\n      swap1\n      pop\n        /* \"#utility.yul\":12391:12506   */\n      swap3\n      swap2\n      pop\n      pop\n      jump\t// out\n        /* \"#utility.yul\":12512:12905   */\n    tag_118:\n        /* \"#utility.yul\":12581:12587   */\n      0x00\n        /* \"#utility.yul\":12631:12632   */\n      0x08\n        /* \"#utility.yul\":12619:12629   */\n      dup4\n        /* \"#utility.yul\":12615:12633   */\n      mul\n        /* \"#utility.yul\":12654:12751   */\n      tag_259\n        /* \"#utility.yul\":12684:12750   */\n      0xffffffffffffffffffffffffffffffffffffffffffffffffffffffffffffffff\n        /* \"#utility.yul\":12673:12682   */\n      dup3\n        /* \"#utility.yul\":12654:12751   */\n      tag_117\n      jump\t// in\n    tag_259:\n        /* \"#utility.yul\":12772:12811   */\n      tag_260\n        /* \"#utility.yul\":12802:12810   */\n      dup7\n        /* \"#utility.yul\":12791:12800   */\n      dup4\n        /* \"#utility.yul\":12772:12811   */\n      tag_117\n      jump\t// in\n    tag_260:\n        /* \"#utility.yul\":12760:12811   */\n      swap6\n      pop\n        /* \"#utility.yul\":12844:12848   */\n      dup1\n        /* \"#utility.yul\":12840:12849   */\n      not\n        /* \"#utility.yul\":12833:12838   */\n      dup5\n        /* \"#utility.yul\":12829:12850   */\n      and\n        /* \"#utility.yul\":12820:12850   */\n      swap4\n      pop\n        /* \"#utility.yul\":12893:12897   */\n      dup1\n        /* \"#utility.yul\":12883:12891   */\n      dup7\n        /* \"#utility.yul\":12879:12898   */\n      and\n        /* \"#utility.yul\":12872:12877   */\n      dup5\n        /* \"#utility.yul\":12869:12899   */\n      or\n        /* \"#utility.yul\":12859:12899   */\n      swap3\n      pop\n        /* \"#utility.yul\":12588:12905   */\n      pop\n      pop\n        /* \"#utility.yul\":12512:12905   */\n      swap4\n      swap3\n      pop\n      pop\n      pop\n      jump\t// out\n        /* \"#utility.yul\":12911:12971   */\n    tag_119:\n        /* \"#utility.yul\":12939:12942   */\n      0x00\n        /* \"#utility.yul\":12960:12965   */\n      dup2\n        /* \"#utility.yul\":12953:12965   */\n      swap1\n      pop\n        /* \"#utility.yul\":12911:12971   */\n      swap2\n      swap1\n      pop\n      jump\t// out\n        /* \"#utility.yul\":12977:13119   */\n    tag_120:\n        /* \"#utility.yul\":13027:13036   */\n      0x00\n        /* \"#utility.yul\":13060:13113   */\n      tag_263\n        /* \"#utility.yul\":13078:13112   */\n      tag_264\n        /* \"#utility.yul\":13087:13111   */\n      tag_265\n        /* \"#utility.yul\":13105:13110   */\n      dup5\n        /* \"#utility.yul\":13087:13111   */\n      tag_92\n      jump\t// in\n    tag_265:\n        /* \"#utility.yul\":13078:13112   */\n      tag_119\n      jump\t// in\n    tag_264:\n        /* \"#utility.yul\":13060:13113   */\n      tag_92\n      jump\t// in\n    tag_263:\n        /* \"#utility.yul\":13047:13113   */\n      swap1\n      pop\n        /* \"#utility.yul\":12977:13119   */\n      swap2\n      swap1\n      pop\n      jump\t// out\n        /* \"#utility.yul\":13125:13200   */\n    tag_121:\n        /* \"#utility.yul\":13168:13171   */\n      0x00\n        /* \"#utility.yul\":13189:13194   */\n      dup2\n        /* \"#utility.yul\":13182:13194   */\n      swap1\n      pop\n        /* \"#utility.yul\":13125:13200   */\n      swap2\n      swap1\n      pop\n      jump\t// out\n        /* \"#utility.yul\":13206:13475   */\n    tag_122:\n        /* \"#utility.yul\":13316:13355   */\n      tag_268\n        /* \"#utility.yul\":13347:13354   */\n      dup4\n        /* \"#utility.yul\":13316:13355   */\n      tag_120\n      jump\t// in\n    tag_268:\n        /* \"#utility.yul\":13377:13468   */\n      tag_269\n        /* \"#utility.yul\":13426:13467   */\n      tag_270\n        /* \"#utility.yul\":13450:13466   */\n      dup3\n        /* \"#utility.yul\":13426:13467   */\n      tag_121\n      jump\t// in\n    tag_270:\n        /* \"#utility.yul\":13418:13424   */\n      dup5\n        /* \"#utility.yul\":13411:13415   */\n      dup5\n        /* \"#utility.yul\":13405:13416   */\n      sload\n        /* \"#utility.yul\":13377:13468   */\n      tag_118\n      jump\t// in\n    tag_269:\n        /* \"#utility.yul\":13371:13375   */\n      dup3\n        /* \"#utility.yul\":13364:13469   */\n      sstore\n        /* \"#utility.yul\":13282:13475   */\n      pop\n        /* \"#utility.yul\":13206:13475   */\n      pop\n      pop\n      pop\n      jump\t// out\n        /* \"#utility.yul\":13481:13554   */\n    tag_123:\n        /* \"#utility.yul\":13526:13529   */\n      0x00\n        /* \"#utility.yul\":13481:13554   */\n      swap1\n      jump\t// out\n        /* \"#utility.yul\":13560:13749   */\n    tag_124:\n        /* \"#utility.yul\":13637:13669   */\n      tag_273\n      tag_123\n      jump\t// in\n    tag_273:\n        /* \"#utility.yul\":13678:13743   */\n      tag_274\n        /* \"#utility.yul\":13736:13742   */\n      dup2\n        /* \"#utility.yul\":13728:13734   */\n      dup5\n        /* \"#utility.yul\":13722:13726   */\n      dup5\n        /* \"#utility.yul\":13678:13743   */\n      tag_122\n      jump\t// in\n    tag_274:\n        /* \"#utility.yul\":13613:13749   */\n      pop\n        /* \"#utility.yul\":13560:13749   */\n      pop\n      pop\n      jump\t// out\n        /* \"#utility.yul\":13755:13941   */\n    tag_125:\n        /* \"#utility.yul\":13815:13935   */\n    tag_276:\n        /* \"#utility.yul\":13832:13835   */\n      dup2\n        /* \"#utility.yul\":13825:13830   */\n      dup2\n        /* \"#utility.yul\":13822:13836   */\n      lt\n        /* \"#utility.yul\":13815:13935   */\n      iszero\n      tag_278\n      jumpi\n        /* \"#utility.yul\":13886:13925   */\n      tag_279\n        /* \"#utility.yul\":13923:13924   */\n      0x00\n        /* \"#utility.yul\":13916:13921   */\n      dup3\n        /* \"#utility.yul\":13886:13925   */\n      tag_124\n      jump\t// in\n    tag_279:\n        /* \"#utility.yul\":13859:13860   */\n      0x01\n        /* \"#utility.yul\":13852:13857   */\n      dup2\n        /* \"#utility.yul\":13848:13861   */\n      add\n        /* \"#utility.yul\":13839:13861   */\n      swap1\n      pop\n        /* \"#utility.yul\":13815:13935   */\n      jump(tag_276)\n    tag_278:\n        /* \"#utility.yul\":13755:13941   */\n      pop\n      pop\n      jump\t// out\n        /* \"#utility.yul\":13947:14490   */\n    tag_126:\n        /* \"#utility.yul\":14048:14050   */\n      0x1f\n        /* \"#utility.yul\":14043:14046   */\n      dup3\n        /* \"#utility.yul\":14040:14051   */\n      gt\n        /* \"#utility.yul\":14037:14483   */\n      iszero\n      tag_281\n      jumpi\n        /* \"#utility.yul\":14082:14120   */\n      tag_282\n        /* \"#utility.yul\":14114:14119   */\n      dup2\n        /* \"#utility.yul\":14082:14120   */\n      tag_115\n      jump\t// in\n    tag_282:\n        /* \"#utility.yul\":14166:14195   */\n      tag_283\n        /* \"#utility.yul\":14184:14194   */\n      dup5\n        /* \"#utility.yul\":14166:14195   */\n      tag_116\n      jump\t// in\n    tag_283:\n        /* \"#utility.yul\":14156:14164   */\n      dup2\n        /* \"#utility.yul\":14152:14196   */\n      add\n        /* \"#utility.yul\":14349:14351   */\n      0x20\n        /* \"#utility.yul\":14337:14347   */\n      dup6\n        /* \"#utility.yul\":14334:14352   */\n      lt\n        /* \"#utility.yul\":14331:14380   */\n      iszero\n      tag_284\n      jumpi\n        /* \"#utility.yul\":14370:14378   */\n      dup2\n        /* \"#utility.yul\":14355:14378   */\n      swap1\n      pop\n        /* \"#utility.yul\":14331:14380   */\n    tag_284:\n        /* \"#utility.yul\":14393:14473   */\n      tag_285\n        /* \"#utility.yul\":14449:14471   */\n      tag_286\n        /* \"#utility.yul\":14467:14470   */\n      dup6\n        /* \"#utility.yul\":14449:14471   */\n      tag_116\n      jump\t// in\n    tag_286:\n        /* \"#utility.yul\":14439:14447   */\n      dup4\n        /* \"#utility.yul\":14435:14472   */\n      add\n        /* \"#utility.yul\":14422:14433   */\n      dup3\n        /* \"#utility.yul\":14393:14473   */\n      tag_125\n      jump\t// in\n    tag_285:\n        /* \"#utility.yul\":14052:14483   */\n      pop\n      pop\n        /* \"#utility.yul\":14037:14483   */\n    tag_281:\n        /* \"#utility.yul\":13947:14490   */\n      pop\n      pop\n      pop\n      jump\t// out\n        /* \"#utility.yul\":14496:14621   */\n    tag_127:\n        /* \"#utility.yul\":14550:14558   */\n      0x00\n        /* \"#utility.yul\":14608:14612   */\n      dup2\n        /* \"#utility.yul\":14605:14606   */\n      0x02\n        /* \"#utility.yul\":14601:14613   */\n      exp\n        /* \"#utility.yul\":14594:14599   */\n      dup4\n        /* \"#utility.yul\":14590:14614   */\n      div\n        /* \"#utility.yul\":14569:14614   */\n      swap1\n      pop\n        /* \"#utility.yul\":14496:14621   */\n      swap3\n      swap2\n      pop\n      pop\n      jump\t// out\n        /* \"#utility.yul\":14627:14796   */\n    tag_128:\n        /* \"#utility.yul\":14671:14677   */\n      0x00\n        /* \"#utility.yul\":14704:14755   */\n      tag_289\n        /* \"#utility.yul\":14752:14753   */\n      0x00\n        /* \"#utility.yul\":14748:14754   */\n      not\n        /* \"#utility.yul\":14740:14745   */\n      dup5\n        /* \"#utility.yul\":14737:14738   */\n      0x08\n        /* \"#utility.yul\":14733:14746   */\n      mul\n        /* \"#utility.yul\":14704:14755   */\n      tag_127\n      jump\t// in\n    tag_289:\n        /* \"#utility.yul\":14700:14756   */\n      not\n        /* \"#utility.yul\":14785:14789   */\n      dup1\n        /* \"#utility.yul\":14779:14783   */\n      dup4\n        /* \"#utility.yul\":14775:14790   */\n      and\n        /* \"#utility.yul\":14765:14790   */\n      swap2\n      pop\n        /* \"#utility.yul\":14678:14796   */\n      pop\n        /* \"#utility.yul\":14627:14796   */\n      swap3\n      swap2\n      pop\n      pop\n      jump\t// out\n        /* \"#utility.yul\":14801:15096   */\n    tag_129:\n        /* \"#utility.yul\":14877:14881   */\n      0x00\n        /* \"#utility.yul\":15023:15052   */\n      tag_291\n        /* \"#utility.yul\":15048:15051   */\n      dup4\n        /* \"#utility.yul\":15042:15046   */\n      dup4\n        /* \"#utility.yul\":15023:15052   */\n      tag_128\n      jump\t// in\n    tag_291:\n        /* \"#utility.yul\":15015:15052   */\n      swap2\n      pop\n        /* \"#utility.yul\":15085:15088   */\n      dup3\n        /* \"#utility.yul\":15082:15083   */\n      0x02\n        /* \"#utility.yul\":15078:15089   */\n      mul\n        /* \"#utility.yul\":15072:15076   */\n      dup3\n        /* \"#utility.yul\":15069:15090   */\n      or\n        /* \"#utility.yul\":15061:15090   */\n      swap1\n      pop\n        /* \"#utility.yul\":14801:15096   */\n      swap3\n      swap2\n      pop\n      pop\n      jump\t// out\n        /* \"#utility.yul\":15101:16496   */\n    tag_29:\n        /* \"#utility.yul\":15218:15255   */\n      tag_293\n        /* \"#utility.yul\":15251:15254   */\n      dup3\n        /* \"#utility.yul\":15218:15255   */\n      tag_95\n      jump\t// in\n    tag_293:\n        /* \"#utility.yul\":15320:15338   */\n      0xffffffffffffffff\n        /* \"#utility.yul\":15312:15318   */\n      dup2\n        /* \"#utility.yul\":15309:15339   */\n      gt\n        /* \"#utility.yul\":15306:15362   */\n      iszero\n      tag_294\n      jumpi\n        /* \"#utility.yul\":15342:15360   */\n      tag_295\n      tag_81\n      jump\t// in\n    tag_295:\n        /* \"#utility.yul\":15306:15362   */\n    tag_294:\n        /* \"#utility.yul\":15386:15424   */\n      tag_296\n        /* \"#utility.yul\":15418:15422   */\n      dup3\n        /* \"#utility.yul\":15412:15423   */\n      sload\n        /* \"#utility.yul\":15386:15424   */\n      tag_34\n      jump\t// in\n    tag_296:\n        /* \"#utility.yul\":15471:15538   */\n      tag_297\n        /* \"#utility.yul\":15531:15537   */\n      dup3\n        /* \"#utility.yul\":15523:15529   */\n      dup3\n        /* \"#utility.yul\":15517:15521   */\n      dup6\n        /* \"#utility.yul\":15471:15538   */\n      tag_126\n      jump\t// in\n    tag_297:\n        /* \"#utility.yul\":15565:15566   */\n      0x00\n        /* \"#utility.yul\":15589:15593   */\n      0x20\n        /* \"#utility.yul\":15576:15593   */\n      swap1\n      pop\n        /* \"#utility.yul\":15621:15623   */\n      0x1f\n        /* \"#utility.yul\":15613:15619   */\n      dup4\n        /* \"#utility.yul\":15610:15624   */\n      gt\n        /* \"#utility.yul\":15638:15639   */\n      0x01\n        /* \"#utility.yul\":15633:16251   */\n      dup2\n      eq\n      tag_299\n      jumpi\n        /* \"#utility.yul\":16295:16296   */\n      0x00\n        /* \"#utility.yul\":16312:16318   */\n      dup5\n        /* \"#utility.yul\":16309:16386   */\n      iszero\n      tag_300\n      jumpi\n        /* \"#utility.yul\":16361:16370   */\n      dup3\n        /* \"#utility.yul\":16356:16359   */\n      dup8\n        /* \"#utility.yul\":16352:16371   */\n      add\n        /* \"#utility.yul\":16346:16372   */\n      mload\n        /* \"#utility.yul\":16337:16372   */\n      swap1\n      pop\n        /* \"#utility.yul\":16309:16386   */\n    tag_300:\n        /* \"#utility.yul\":16412:16479   */\n      tag_301\n        /* \"#utility.yul\":16472:16478   */\n      dup6\n        /* \"#utility.yul\":16465:16470   */\n      dup3\n        /* \"#utility.yul\":16412:16479   */\n      tag_129\n      jump\t// in\n    tag_301:\n        /* \"#utility.yul\":16406:16410   */\n      dup7\n        /* \"#utility.yul\":16399:16480   */\n      sstore\n        /* \"#utility.yul\":16268:16490   */\n      pop\n        /* \"#utility.yul\":15603:16490   */\n      jump(tag_298)\n        /* \"#utility.yul\":15633:16251   */\n    tag_299:\n        /* \"#utility.yul\":15685:15689   */\n      0x1f\n        /* \"#utility.yul\":15681:15690   */\n      not\n        /* \"#utility.yul\":15673:15679   */\n      dup5\n        /* \"#utility.yul\":15669:15691   */\n      and\n        /* \"#utility.yul\":15719:15756   */\n      tag_302\n        /* \"#utility.yul\":15751:15755   */\n      dup7\n        /* \"#utility.yul\":15719:15756   */\n      tag_115\n      jump\t// in\n    tag_302:\n        /* \"#utility.yul\":15778:15779   */\n      0x00\n        /* \"#utility.yul\":15792:16000   */\n    tag_303:\n        /* \"#utility.yul\":15806:15813   */\n      dup3\n        /* \"#utility.yul\":15803:15804   */\n      dup2\n        /* \"#utility.yul\":15800:15814   */\n      lt\n        /* \"#utility.yul\":15792:16000   */\n      iszero\n      tag_305\n      jumpi\n        /* \"#utility.yul\":15885:15894   */\n      dup5\n        /* \"#utility.yul\":15880:15883   */\n      dup10\n        /* \"#utility.yul\":15876:15895   */\n      add\n        /* \"#utility.yul\":15870:15896   */\n      mload\n        /* \"#utility.yul\":15862:15868   */\n      dup3\n        /* \"#utility.yul\":15855:15897   */\n      sstore\n        /* \"#utility.yul\":15936:15937   */\n      0x01\n        /* \"#utility.yul\":15928:15934   */\n      dup3\n        /* \"#utility.yul\":15924:15938   */\n      add\n        /* \"#utility.yul\":15914:15938   */\n      swap2\n      pop\n        /* \"#utility.yul\":15983:15985   */\n      0x20\n        /* \"#utility.yul\":15972:15981   */\n      dup6\n        /* \"#utility.yul\":15968:15986   */\n      add\n        /* \"#utility.yul\":15955:15986   */\n      swap5\n      pop\n        /* \"#utility.yul\":15829:15833   */\n      0x20\n        /* \"#utility.yul\":15826:15827   */\n      dup2\n        /* \"#utility.yul\":15822:15834   */\n      add\n        /* \"#utility.yul\":15817:15834   */\n      swap1\n      pop\n        /* \"#utility.yul\":15792:16000   */\n      jump(tag_303)\n    tag_305:\n        /* \"#utility.yul\":16028:16034   */\n      dup7\n        /* \"#utility.yul\":16019:16026   */\n      dup4\n        /* \"#utility.yul\":16016:16035   */\n      lt\n        /* \"#utility.yul\":16013:16192   */\n      iszero\n      tag_306\n      jumpi\n        /* \"#utility.yul\":16086:16095   */\n      dup5\n        /* \"#utility.yul\":16081:16084   */\n      dup10\n        /* \"#utility.yul\":16077:16096   */\n      add\n        /* \"#utility.yul\":16071:16097   */\n      mload\n        /* \"#utility.yul\":16129:16177   */\n      tag_307\n        /* \"#utility.yul\":16171:16175   */\n      0x1f\n        /* \"#utility.yul\":16163:16169   */\n      dup10\n        /* \"#utility.yul\":16159:16176   */\n      and\n        /* \"#utility.yul\":16148:16157   */\n      dup3\n        /* \"#utility.yul\":16129:16177   */\n      tag_128\n      jump\t// in\n    tag_307:\n        /* \"#utility.yul\":16121:16127   */\n      dup4\n        /* \"#utility.yul\":16114:16178   */\n      sstore\n        /* \"#utility.yul\":16036:16192   */\n      pop\n        /* \"#utility.yul\":16013:16192   */\n    tag_306:\n        /* \"#utility.yul\":16238:16239   */\n      0x01\n        /* \"#utility.yul\":16234:16235   */\n      0x02\n        /* \"#utility.yul\":16226:16232   */\n      dup9\n        /* \"#utility.yul\":16222:16236   */\n      mul\n        /* \"#utility.yul\":16218:16240   */\n      add\n        /* \"#utility.yul\":16212:16216   */\n      dup9\n        /* \"#utility.yul\":16205:16241   */\n      sstore\n        /* \"#utility.yul\":15640:16251   */\n      pop\n      pop\n      pop\n        /* \"#utility.yul\":15603:16490   */\n    tag_298:\n      pop\n        /* \"#utility.yul\":15193:16496   */\n      pop\n      pop\n      pop\n        /* \"#utility.yul\":15101:16496   */\n      pop\n      pop\n      jump\t// out\n        /* \"#utility.yul\":16502:16682   */\n    tag_50:\n        /* \"#utility.yul\":16550:16627   */\n      0x4e487b7100000000000000000000000000000000000000000000000000000000\n        /* \"#utility.yul\":16547:16548   */\n      0x00\n        /* \"#utility.yul\":16540:16628   */\n      mstore\n        /* \"#utility.yul\":16647:16651   */\n      0x32\n        /* \"#utility.yul\":16644:16645   */\n      0x04\n        /* \"#utility.yul\":16637:16652   */\n      mstore\n        /* \"#utility.yul\":16671:16675   */\n      0x24\n        /* \"#utility.yul\":16668:16669   */\n      0x00\n        /* \"#utility.yul\":16661:16676   */\n      revert\n        /* \"#utility.yul\":16688:16835   */\n    tag_130:\n        /* \"#utility.yul\":16789:16800   */\n      0x00\n        /* \"#utility.yul\":16826:16829   */\n      dup2\n        /* \"#utility.yul\":16811:16829   */\n      swap1\n      pop\n        /* \"#utility.yul\":16688:16835   */\n      swap3\n      swap2\n      pop\n      pop\n      jump\t// out\n        /* \"#utility.yul\":16841:16985   */\n    tag_131:\n        /* \"#utility.yul\":16893:16897   */\n      0x00\n        /* \"#utility.yul\":16916:16919   */\n      dup2\n        /* \"#utility.yul\":16908:16919   */\n      swap1\n      pop\n        /* \"#utility.yul\":16939:16942   */\n      dup2\n        /* \"#utility.yul\":16936:16937   */\n      0x00\n        /* \"#utility.yul\":16929:16943   */\n      mstore\n        /* \"#utility.yul\":16973:16977   */\n      0x20\n        /* \"#utility.yul\":16970:16971   */\n      0x00\n        /* \"#utility.yul\":16960:16978   */\n      keccak256\n        /* \"#utility.yul\":16952:16978   */\n      swap1\n      pop\n        /* \"#utility.yul\":16841:16985   */\n      swap2\n      swap1\n      pop\n      jump\t// out\n        /* \"#utility.yul\":17013:17891   */\n    tag_132:\n        /* \"#utility.yul\":17118:17121   */\n      0x00\n        /* \"#utility.yul\":17155:17160   */\n      dup2\n        /* \"#utility.yul\":17149:17161   */\n      sload\n        /* \"#utility.yul\":17184:17220   */\n      tag_312\n        /* \"#utility.yul\":17210:17219   */\n      dup2\n        /* \"#utility.yul\":17184:17220   */\n      tag_34\n      jump\t// in\n    tag_312:\n        /* \"#utility.yul\":17236:17324   */\n      tag_313\n        /* \"#utility.yul\":17317:17323   */\n      dup2\n        /* \"#utility.yul\":17312:17315   */\n      dup7\n        /* \"#utility.yul\":17236:17324   */\n      tag_130\n      jump\t// in\n    tag_313:\n        /* \"#utility.yul\":17229:17324   */\n      swap5\n      pop\n        /* \"#utility.yul\":17355:17356   */\n      0x01\n        /* \"#utility.yul\":17344:17353   */\n      dup3\n        /* \"#utility.yul\":17340:17357   */\n      and\n        /* \"#utility.yul\":17371:17372   */\n      0x00\n        /* \"#utility.yul\":17366:17532   */\n      dup2\n      eq\n      tag_315\n      jumpi\n        /* \"#utility.yul\":17546:17547   */\n      0x01\n        /* \"#utility.yul\":17541:17885   */\n      dup2\n      eq\n      tag_316\n      jumpi\n        /* \"#utility.yul\":17333:17885   */\n      jump(tag_314)\n        /* \"#utility.yul\":17366:17532   */\n    tag_315:\n        /* \"#utility.yul\":17450:17454   */\n      0xff\n        /* \"#utility.yul\":17446:17455   */\n      not\n        /* \"#utility.yul\":17435:17444   */\n      dup4\n        /* \"#utility.yul\":17431:17456   */\n      and\n        /* \"#utility.yul\":17426:17429   */\n      dup7\n        /* \"#utility.yul\":17419:17457   */\n      mstore\n        /* \"#utility.yul\":17512:17518   */\n      dup2\n        /* \"#utility.yul\":17505:17519   */\n      iszero\n        /* \"#utility.yul\":17498:17520   */\n      iszero\n        /* \"#utility.yul\":17490:17496   */\n      dup3\n        /* \"#utility.yul\":17486:17521   */\n      mul\n        /* \"#utility.yul\":17481:17484   */\n      dup7\n        /* \"#utility.yul\":17477:17522   */\n      add\n        /* \"#utility.yul\":17470:17522   */\n      swap4\n      pop\n        /* \"#utility.yul\":17366:17532   */\n      jump(tag_314)\n        /* \"#utility.yul\":17541:17885   */\n    tag_316:\n        /* \"#utility.yul\":17608:17649   */\n      tag_317\n        /* \"#utility.yul\":17643:17648   */\n      dup6\n        /* \"#utility.yul\":17608:17649   */\n      tag_131\n      jump\t// in\n    tag_317:\n        /* \"#utility.yul\":17671:17672   */\n      0x00\n        /* \"#utility.yul\":17685:17839   */\n    tag_318:\n        /* \"#utility.yul\":17699:17705   */\n      dup4\n        /* \"#utility.yul\":17696:17697   */\n      dup2\n        /* \"#utility.yul\":17693:17706   */\n      lt\n        /* \"#utility.yul\":17685:17839   */\n      iszero\n      tag_320\n      jumpi\n        /* \"#utility.yul\":17773:17780   */\n      dup2\n        /* \"#utility.yul\":17767:17781   */\n      sload\n        /* \"#utility.yul\":17763:17764   */\n      dup2\n        /* \"#utility.yul\":17758:17761   */\n      dup10\n        /* \"#utility.yul\":17754:17765   */\n      add\n        /* \"#utility.yul\":17747:17782   */\n      mstore\n        /* \"#utility.yul\":17823:17824   */\n      0x01\n        /* \"#utility.yul\":17814:17821   */\n      dup3\n        /* \"#utility.yul\":17810:17825   */\n      add\n        /* \"#utility.yul\":17799:17825   */\n      swap2\n      pop\n        /* \"#utility.yul\":17721:17725   */\n      0x20\n        /* \"#utility.yul\":17718:17719   */\n      dup2\n        /* \"#utility.yul\":17714:17726   */\n      add\n        /* \"#utility.yul\":17709:17726   */\n      swap1\n      pop\n        /* \"#utility.yul\":17685:17839   */\n      jump(tag_318)\n    tag_320:\n        /* \"#utility.yul\":17868:17874   */\n      dup4\n        /* \"#utility.yul\":17863:17866   */\n      dup9\n        /* \"#utility.yul\":17859:17875   */\n      add\n        /* \"#utility.yul\":17852:17875   */\n      swap6\n      pop\n        /* \"#utility.yul\":17548:17885   */\n      pop\n      pop\n        /* \"#utility.yul\":17333:17885   */\n    tag_314:\n      pop\n        /* \"#utility.yul\":17122:17891   */\n      pop\n      pop\n        /* \"#utility.yul\":17013:17891   */\n      swap3\n      swap2\n      pop\n      pop\n      jump\t// out\n        /* \"#utility.yul\":17897:18170   */\n    tag_53:\n        /* \"#utility.yul\":18028:18031   */\n      0x00\n        /* \"#utility.yul\":18050:18144   */\n      tag_322\n        /* \"#utility.yul\":18140:18143   */\n      dup3\n        /* \"#utility.yul\":18131:18137   */\n      dup5\n        /* \"#utility.yul\":18050:18144   */\n      tag_132\n      jump\t// in\n    tag_322:\n        /* \"#utility.yul\":18043:18144   */\n      swap2\n      pop\n        /* \"#utility.yul\":18161:18164   */\n      dup2\n        /* \"#utility.yul\":18154:18164   */\n      swap1\n      pop\n        /* \"#utility.yul\":17897:18170   */\n      swap3\n      swap2\n      pop\n      pop\n      jump\t// out\n        /* \"#utility.yul\":18176:18356   */\n    tag_133:\n        /* \"#utility.yul\":18224:18301   */\n      0x4e487b7100000000000000000000000000000000000000000000000000000000\n        /* \"#utility.yul\":18221:18222   */\n      0x00\n        /* \"#utility.yul\":18214:18302   */\n      mstore\n        /* \"#utility.yul\":18321:18325   */\n      0x11\n        /* \"#utility.yul\":18318:18319   */\n      0x04\n        /* \"#utility.yul\":18311:18326   */\n      mstore\n        /* \"#utility.yul\":18345:18349   */\n      0x24\n        /* \"#utility.yul\":18342:18343   */\n      0x00\n        /* \"#utility.yul\":18335:18350   */\n      revert\n        /* \"#utility.yul\":18362:18595   */\n    tag_60:\n        /* \"#utility.yul\":18401:18404   */\n      0x00\n        /* \"#utility.yul\":18424:18448   */\n      tag_325\n        /* \"#utility.yul\":18442:18447   */\n      dup3\n        /* \"#utility.yul\":18424:18448   */\n      tag_92\n      jump\t// in\n    tag_325:\n        /* \"#utility.yul\":18415:18448   */\n      swap2\n      pop\n        /* \"#utility.yul\":18470:18536   */\n      0xffffffffffffffffffffffffffffffffffffffffffffffffffffffffffffffff\n        /* \"#utility.yul\":18463:18468   */\n      dup3\n        /* \"#utility.yul\":18460:18537   */\n      sub\n        /* \"#utility.yul\":18457:18560   */\n      tag_326\n      jumpi\n        /* \"#utility.yul\":18540:18558   */\n      tag_327\n      tag_133\n      jump\t// in\n    tag_327:\n        /* \"#utility.yul\":18457:18560   */\n    tag_326:\n        /* \"#utility.yul\":18587:18588   */\n      0x01\n        /* \"#utility.yul\":18580:18585   */\n      dup3\n        /* \"#utility.yul\":18576:18589   */\n      add\n        /* \"#utility.yul\":18569:18589   */\n      swap1\n      pop\n        /* \"#utility.yul\":18362:18595   */\n      swap2\n      swap1\n      pop\n      jump\t// out\n\n    auxdata: 0xa264697066735822122089e6677e762ca82abb860c5a9749fa9adbc5fa9914188a97748153792845d61964736f6c63430008120033\n}\n",
				"bytecode": {
					"linkReferences": {},
					"object": "608060405234801561001057600080fd5b5061107e806100206000396000f3fe608060405234801561001057600080fd5b5060043610610069576000357c01000000000000000000000000000000000000000000000000000000009004806387d96c551461006e5780638905c2741461008a578063ad1aa429146100bd578063b7e03264146100ed575b600080fd5b6100886004803603810190610083919061085c565b61010b565b005b6100a4600480360381019061009f91906108fb565b6101f8565b6040516100b494939291906109c5565b60405180910390f35b6100d760048036038101906100d2919061085c565b610368565b6040516100e49190610a33565b60405180910390f35b6100f561048b565b6040516101029190610be2565b60405180910390f35b600060405180608001604052808681526020018581526020018473ffffffffffffffffffffffffffffffffffffffff168152602001838152509050600181908060018154018082558091505060019003906000526020600020906004020160009091909190915060008201518160000190816101879190610e16565b50602082015181600101908161019d9190610e16565b5060408201518160020160006101000a81548173ffffffffffffffffffffffffffffffffffffffff021916908373ffffffffffffffffffffffffffffffffffffffff1602179055506060820151816003015550505050505050565b6001818154811061020857600080fd5b906000526020600020906004020160009150905080600001805461022b90610c33565b80601f016020809104026020016040519081016040528092919081815260200182805461025790610c33565b80156102a45780601f10610279576101008083540402835291602001916102a4565b820191906000526020600020905b81548152906001019060200180831161028757829003601f168201915b5050505050908060010180546102b990610c33565b80601f01602080910402602001604051908101604052809291908181526020018280546102e590610c33565b80156103325780601f1061030757610100808354040283529160200191610332565b820191906000526020600020905b81548152906001019060200180831161031557829003601f168201915b5050505050908060020160009054906101000a900473ffffffffffffffffffffffffffffffffffffffff16908060030154905084565b600080600090505b60018054905081101561047d5760006001828154811061039357610392610ee8565b5b906000526020600020906004020190508680519060200120816000016040516103bc9190610fba565b60405180910390201480156103ef57508580519060200120816001016040516103e59190610fba565b6040518091039020145b801561044a57508473ffffffffffffffffffffffffffffffffffffffff168160020160009054906101000a900473ffffffffffffffffffffffffffffffffffffffff1673ffffffffffffffffffffffffffffffffffffffff16145b80156104595750838160030154145b1561046957600192505050610483565b50808061047590611000565b915050610370565b50600090505b949350505050565b60606001805480602002602001604051908101604052809291908181526020016000905b8282101561066557838290600052602060002090600402016040518060800160405290816000820180546104e290610c33565b80601f016020809104026020016040519081016040528092919081815260200182805461050e90610c33565b801561055b5780601f106105305761010080835404028352916020019161055b565b820191906000526020600020905b81548152906001019060200180831161053e57829003601f168201915b5050505050815260200160018201805461057490610c33565b80601f01602080910402602001604051908101604052809291908181526020018280546105a090610c33565b80156105ed5780601f106105c2576101008083540402835291602001916105ed565b820191906000526020600020905b8154815290600101906020018083116105d057829003601f168201915b505050505081526020016002820160009054906101000a900473ffffffffffffffffffffffffffffffffffffffff1673ffffffffffffffffffffffffffffffffffffffff1673ffffffffffffffffffffffffffffffffffffffff168152602001600382015481525050815260200190600101906104af565b50505050905090565b6000604051905090565b600080fd5b600080fd5b600080fd5b600080fd5b6000601f19601f8301169050919050565b7f4e487b7100000000000000000000000000000000000000000000000000000000600052604160045260246000fd5b6106d58261068c565b810181811067ffffffffffffffff821117156106f4576106f361069d565b5b80604052505050565b600061070761066e565b905061071382826106cc565b919050565b600067ffffffffffffffff8211156107335761073261069d565b5b61073c8261068c565b9050602081019050919050565b82818337600083830152505050565b600061076b61076684610718565b6106fd565b90508281526020810184848401111561078757610786610687565b5b610792848285610749565b509392505050565b600082601f8301126107af576107ae610682565b5b81356107bf848260208601610758565b91505092915050565b600073ffffffffffffffffffffffffffffffffffffffff82169050919050565b60006107f3826107c8565b9050919050565b610803816107e8565b811461080e57600080fd5b50565b600081359050610820816107fa565b92915050565b6000819050919050565b61083981610826565b811461084457600080fd5b50565b60008135905061085681610830565b92915050565b6000806000806080858703121561087657610875610678565b5b600085013567ffffffffffffffff8111156108945761089361067d565b5b6108a08782880161079a565b945050602085013567ffffffffffffffff8111156108c1576108c061067d565b5b6108cd8782880161079a565b93505060406108de87828801610811565b92505060606108ef87828801610847565b91505092959194509250565b60006020828403121561091157610910610678565b5b600061091f84828501610847565b91505092915050565b600081519050919050565b600082825260208201905092915050565b60005b83811015610962578082015181840152602081019050610947565b60008484015250505050565b600061097982610928565b6109838185610933565b9350610993818560208601610944565b61099c8161068c565b840191505092915050565b6109b0816107e8565b82525050565b6109bf81610826565b82525050565b600060808201905081810360008301526109df818761096e565b905081810360208301526109f3818661096e565b9050610a0260408301856109a7565b610a0f60608301846109b6565b95945050505050565b60008115159050919050565b610a2d81610a18565b82525050565b6000602082019050610a486000830184610a24565b92915050565b600081519050919050565b600082825260208201905092915050565b6000819050602082019050919050565b600082825260208201905092915050565b6000610a9682610928565b610aa08185610a7a565b9350610ab0818560208601610944565b610ab98161068c565b840191505092915050565b610acd816107e8565b82525050565b610adc81610826565b82525050565b60006080830160008301518482036000860152610aff8282610a8b565b91505060208301518482036020860152610b198282610a8b565b9150506040830151610b2e6040860182610ac4565b506060830151610b416060860182610ad3565b508091505092915050565b6000610b588383610ae2565b905092915050565b6000602082019050919050565b6000610b7882610a4e565b610b828185610a59565b935083602082028501610b9485610a6a565b8060005b85811015610bd05784840389528151610bb18582610b4c565b9450610bbc83610b60565b925060208a01995050600181019050610b98565b50829750879550505050505092915050565b60006020820190508181036000830152610bfc8184610b6d565b905092915050565b7f4e487b7100000000000000000000000000000000000000000000000000000000600052602260045260246000fd5b60006002820490506001821680610c4b57607f821691505b602082108103610c5e57610c5d610c04565b5b50919050565b60008190508160005260206000209050919050565b60006020601f8301049050919050565b60008160020a8302905092915050565b600060088302610cc97fffffffffffffffffffffffffffffffffffffffffffffffffffffffffffffffff82610c89565b610cd38683610c89565b95508019841693508086168417925050509392505050565b6000819050919050565b6000610d10610d0b610d0684610826565b610ceb565b610826565b9050919050565b6000819050919050565b610d2a83610cf5565b610d3e610d3682610d17565b848454610c99565b825550505050565b600090565b610d53610d46565b610d5e818484610d21565b505050565b5b81811015610d8257610d77600082610d4b565b600181019050610d64565b5050565b601f821115610dc757610d9881610c64565b610da184610c79565b81016020851015610db0578190505b610dc4610dbc85610c79565b830182610d63565b50505b505050565b60008160020a8304905092915050565b6000610ded60001984600802610dcc565b1980831691505092915050565b6000610e068383610ddc565b9150826002028217905092915050565b610e1f82610928565b67ffffffffffffffff811115610e3857610e3761069d565b5b610e428254610c33565b610e4d828285610d86565b600060209050601f831160018114610e805760008415610e6e578287015190505b610e788582610dfa565b865550610ee0565b601f198416610e8e86610c64565b60005b82811015610eb657848901518255600182019150602085019450602081019050610e91565b86831015610ed35784890151610ecf601f891682610ddc565b8355505b6001600288020188555050505b505050505050565b7f4e487b7100000000000000000000000000000000000000000000000000000000600052603260045260246000fd5b600081905092915050565b60008190508160005260206000209050919050565b60008154610f4481610c33565b610f4e8186610f17565b94506001821660008114610f695760018114610f7e57610fb1565b60ff1983168652811515820286019350610fb1565b610f8785610f22565b60005b83811015610fa957815481890152600182019150602081019050610f8a565b838801955050505b50505092915050565b6000610fc68284610f37565b915081905092915050565b7f4e487b7100000000000000000000000000000000000000000000000000000000600052601160045260246000fd5b600061100b82610826565b91507fffffffffffffffffffffffffffffffffffffffffffffffffffffffffffffffff820361103d5761103c610fd1565b5b60018201905091905056fea264697066735822122089e6677e762ca82abb860c5a9749fa9adbc5fa9914188a97748153792845d61964736f6c63430008120033",
					"opcodes": "PUSH1 0x80 PUSH1 0x40 MSTORE CALLVALUE DUP1 ISZERO PUSH2 0x10 JUMPI PUSH1 0x0 DUP1 REVERT JUMPDEST POP PUSH2 0x107E DUP1 PUSH2 0x20 PUSH1 0x0 CODECOPY PUSH1 0x0 RETURN INVALID PUSH1 0x80 PUSH1 0x40 MSTORE CALLVALUE DUP1 ISZERO PUSH2 0x10 JUMPI PUSH1 0x0 DUP1 REVERT JUMPDEST POP PUSH1 0x4 CALLDATASIZE LT PUSH2 0x69 JUMPI PUSH1 0x0 CALLDATALOAD PUSH29 0x100000000000000000000000000000000000000000000000000000000 SWAP1 DIV DUP1 PUSH4 0x87D96C55 EQ PUSH2 0x6E JUMPI DUP1 PUSH4 0x8905C274 EQ PUSH2 0x8A JUMPI DUP1 PUSH4 0xAD1AA429 EQ PUSH2 0xBD JUMPI DUP1 PUSH4 0xB7E03264 EQ PUSH2 0xED JUMPI JUMPDEST PUSH1 0x0 DUP1 REVERT JUMPDEST PUSH2 0x88 PUSH1 0x4 DUP1 CALLDATASIZE SUB DUP2 ADD SWAP1 PUSH2 0x83 SWAP2 SWAP1 PUSH2 0x85C JUMP JUMPDEST PUSH2 0x10B JUMP JUMPDEST STOP JUMPDEST PUSH2 0xA4 PUSH1 0x4 DUP1 CALLDATASIZE SUB DUP2 ADD SWAP1 PUSH2 0x9F SWAP2 SWAP1 PUSH2 0x8FB JUMP JUMPDEST PUSH2 0x1F8 JUMP JUMPDEST PUSH1 0x40 MLOAD PUSH2 0xB4 SWAP5 SWAP4 SWAP3 SWAP2 SWAP1 PUSH2 0x9C5 JUMP JUMPDEST PUSH1 0x40 MLOAD DUP1 SWAP2 SUB SWAP1 RETURN JUMPDEST PUSH2 0xD7 PUSH1 0x4 DUP1 CALLDATASIZE SUB DUP2 ADD SWAP1 PUSH2 0xD2 SWAP2 SWAP1 PUSH2 0x85C JUMP JUMPDEST PUSH2 0x368 JUMP JUMPDEST PUSH1 0x40 MLOAD PUSH2 0xE4 SWAP2 SWAP1 PUSH2 0xA33 JUMP JUMPDEST PUSH1 0x40 MLOAD DUP1 SWAP2 SUB SWAP1 RETURN JUMPDEST PUSH2 0xF5 PUSH2 0x48B JUMP JUMPDEST PUSH1 0x40 MLOAD PUSH2 0x102 SWAP2 SWAP1 PUSH2 0xBE2 JUMP JUMPDEST PUSH1 0x40 MLOAD DUP1 SWAP2 SUB SWAP1 RETURN JUMPDEST PUSH1 0x0 PUSH1 0x40 MLOAD DUP1 PUSH1 0x80 ADD PUSH1 0x40 MSTORE DUP1 DUP7 DUP2 MSTORE PUSH1 0x20 ADD DUP6 DUP2 MSTORE PUSH1 0x20 ADD DUP5 PUSH20 0xFFFFFFFFFFFFFFFFFFFFFFFFFFFFFFFFFFFFFFFF AND DUP2 MSTORE PUSH1 0x20 ADD DUP4 DUP2 MSTORE POP SWAP1 POP PUSH1 0x1 DUP2 SWAP1 DUP1 PUSH1 0x1 DUP2 SLOAD ADD DUP1 DUP3 SSTORE DUP1 SWAP2 POP POP PUSH1 0x1 SWAP1 SUB SWAP1 PUSH1 0x0 MSTORE PUSH1 0x20 PUSH1 0x0 KECCAK256 SWAP1 PUSH1 0x4 MUL ADD PUSH1 0x0 SWAP1 SWAP2 SWAP1 SWAP2 SWAP1 SWAP2 POP PUSH1 0x0 DUP3 ADD MLOAD DUP2 PUSH1 0x0 ADD SWAP1 DUP2 PUSH2 0x187 SWAP2 SWAP1 PUSH2 0xE16 JUMP JUMPDEST POP PUSH1 0x20 DUP3 ADD MLOAD DUP2 PUSH1 0x1 ADD SWAP1 DUP2 PUSH2 0x19D SWAP2 SWAP1 PUSH2 0xE16 JUMP JUMPDEST POP PUSH1 0x40 DUP3 ADD MLOAD DUP2 PUSH1 0x2 ADD PUSH1 0x0 PUSH2 0x100 EXP DUP2 SLOAD DUP2 PUSH20 0xFFFFFFFFFFFFFFFFFFFFFFFFFFFFFFFFFFFFFFFF MUL NOT AND SWAP1 DUP4 PUSH20 0xFFFFFFFFFFFFFFFFFFFFFFFFFFFFFFFFFFFFFFFF AND MUL OR SWAP1 SSTORE POP PUSH1 0x60 DUP3 ADD MLOAD DUP2 PUSH1 0x3 ADD SSTORE POP POP POP POP POP POP POP JUMP JUMPDEST PUSH1 0x1 DUP2 DUP2 SLOAD DUP2 LT PUSH2 0x208 JUMPI PUSH1 0x0 DUP1 REVERT JUMPDEST SWAP1 PUSH1 0x0 MSTORE PUSH1 0x20 PUSH1 0x0 KECCAK256 SWAP1 PUSH1 0x4 MUL ADD PUSH1 0x0 SWAP2 POP SWAP1 POP DUP1 PUSH1 0x0 ADD DUP1 SLOAD PUSH2 0x22B SWAP1 PUSH2 0xC33 JUMP JUMPDEST DUP1 PUSH1 0x1F ADD PUSH1 0x20 DUP1 SWAP2 DIV MUL PUSH1 0x20 ADD PUSH1 0x40 MLOAD SWAP1 DUP2 ADD PUSH1 0x40 MSTORE DUP1 SWAP3 SWAP2 SWAP1 DUP2 DUP2 MSTORE PUSH1 0x20 ADD DUP3 DUP1 SLOAD PUSH2 0x257 SWAP1 PUSH2 0xC33 JUMP JUMPDEST DUP1 ISZERO PUSH2 0x2A4 JUMPI DUP1 PUSH1 0x1F LT PUSH2 0x279 JUMPI PUSH2 0x100 DUP1 DUP4 SLOAD DIV MUL DUP4 MSTORE SWAP2 PUSH1 0x20 ADD SWAP2 PUSH2 0x2A4 JUMP JUMPDEST DUP3 ADD SWAP2 SWAP1 PUSH1 0x0 MSTORE PUSH1 0x20 PUSH1 0x0 KECCAK256 SWAP1 JUMPDEST DUP2 SLOAD DUP2 MSTORE SWAP1 PUSH1 0x1 ADD SWAP1 PUSH1 0x20 ADD DUP1 DUP4 GT PUSH2 0x287 JUMPI DUP3 SWAP1 SUB PUSH1 0x1F AND DUP3 ADD SWAP2 JUMPDEST POP POP POP POP POP SWAP1 DUP1 PUSH1 0x1 ADD DUP1 SLOAD PUSH2 0x2B9 SWAP1 PUSH2 0xC33 JUMP JUMPDEST DUP1 PUSH1 0x1F ADD PUSH1 0x20 DUP1 SWAP2 DIV MUL PUSH1 0x20 ADD PUSH1 0x40 MLOAD SWAP1 DUP2 ADD PUSH1 0x40 MSTORE DUP1 SWAP3 SWAP2 SWAP1 DUP2 DUP2 MSTORE PUSH1 0x20 ADD DUP3 DUP1 SLOAD PUSH2 0x2E5 SWAP1 PUSH2 0xC33 JUMP JUMPDEST DUP1 ISZERO PUSH2 0x332 JUMPI DUP1 PUSH1 0x1F LT PUSH2 0x307 JUMPI PUSH2 0x100 DUP1 DUP4 SLOAD DIV MUL DUP4 MSTORE SWAP2 PUSH1 0x20 ADD SWAP2 PUSH2 0x332 JUMP JUMPDEST DUP3 ADD SWAP2 SWAP1 PUSH1 0x0 MSTORE PUSH1 0x20 PUSH1 0x0 KECCAK256 SWAP1 JUMPDEST DUP2 SLOAD DUP2 MSTORE SWAP1 PUSH1 0x1 ADD SWAP1 PUSH1 0x20 ADD DUP1 DUP4 GT PUSH2 0x315 JUMPI DUP3 SWAP1 SUB PUSH1 0x1F AND DUP3 ADD SWAP2 JUMPDEST POP POP POP POP POP SWAP1 DUP1 PUSH1 0x2 ADD PUSH1 0x0 SWAP1 SLOAD SWAP1 PUSH2 0x100 EXP SWAP1 DIV PUSH20 0xFFFFFFFFFFFFFFFFFFFFFFFFFFFFFFFFFFFFFFFF AND SWAP1 DUP1 PUSH1 0x3 ADD SLOAD SWAP1 POP DUP5 JUMP JUMPDEST PUSH1 0x0 DUP1 PUSH1 0x0 SWAP1 POP JUMPDEST PUSH1 0x1 DUP1 SLOAD SWAP1 POP DUP2 LT ISZERO PUSH2 0x47D JUMPI PUSH1 0x0 PUSH1 0x1 DUP3 DUP2 SLOAD DUP2 LT PUSH2 0x393 JUMPI PUSH2 0x392 PUSH2 0xEE8 JUMP JUMPDEST JUMPDEST SWAP1 PUSH1 0x0 MSTORE PUSH1 0x20 PUSH1 0x0 KECCAK256 SWAP1 PUSH1 0x4 MUL ADD SWAP1 POP DUP7 DUP1 MLOAD SWAP1 PUSH1 0x20 ADD KECCAK256 DUP2 PUSH1 0x0 ADD PUSH1 0x40 MLOAD PUSH2 0x3BC SWAP2 SWAP1 PUSH2 0xFBA JUMP JUMPDEST PUSH1 0x40 MLOAD DUP1 SWAP2 SUB SWAP1 KECCAK256 EQ DUP1 ISZERO PUSH2 0x3EF JUMPI POP DUP6 DUP1 MLOAD SWAP1 PUSH1 0x20 ADD KECCAK256 DUP2 PUSH1 0x1 ADD PUSH1 0x40 MLOAD PUSH2 0x3E5 SWAP2 SWAP1 PUSH2 0xFBA JUMP JUMPDEST PUSH1 0x40 MLOAD DUP1 SWAP2 SUB SWAP1 KECCAK256 EQ JUMPDEST DUP1 ISZERO PUSH2 0x44A JUMPI POP DUP5 PUSH20 0xFFFFFFFFFFFFFFFFFFFFFFFFFFFFFFFFFFFFFFFF AND DUP2 PUSH1 0x2 ADD PUSH1 0x0 SWAP1 SLOAD SWAP1 PUSH2 0x100 EXP SWAP1 DIV PUSH20 0xFFFFFFFFFFFFFFFFFFFFFFFFFFFFFFFFFFFFFFFF AND PUSH20 0xFFFFFFFFFFFFFFFFFFFFFFFFFFFFFFFFFFFFFFFF AND EQ JUMPDEST DUP1 ISZERO PUSH2 0x459 JUMPI POP DUP4 DUP2 PUSH1 0x3 ADD SLOAD EQ JUMPDEST ISZERO PUSH2 0x469 JUMPI PUSH1 0x1 SWAP3 POP POP POP PUSH2 0x483 JUMP JUMPDEST POP DUP1 DUP1 PUSH2 0x475 SWAP1 PUSH2 0x1000 JUMP JUMPDEST SWAP2 POP POP PUSH2 0x370 JUMP JUMPDEST POP PUSH1 0x0 SWAP1 POP JUMPDEST SWAP5 SWAP4 POP POP POP POP JUMP JUMPDEST PUSH1 0x60 PUSH1 0x1 DUP1 SLOAD DUP1 PUSH1 0x20 MUL PUSH1 0x20 ADD PUSH1 0x40 MLOAD SWAP1 DUP2 ADD PUSH1 0x40 MSTORE DUP1 SWAP3 SWAP2 SWAP1 DUP2 DUP2 MSTORE PUSH1 0x20 ADD PUSH1 0x0 SWAP1 JUMPDEST DUP3 DUP3 LT ISZERO PUSH2 0x665 JUMPI DUP4 DUP3 SWAP1 PUSH1 0x0 MSTORE PUSH1 0x20 PUSH1 0x0 KECCAK256 SWAP1 PUSH1 0x4 MUL ADD PUSH1 0x40 MLOAD DUP1 PUSH1 0x80 ADD PUSH1 0x40 MSTORE SWAP1 DUP2 PUSH1 0x0 DUP3 ADD DUP1 SLOAD PUSH2 0x4E2 SWAP1 PUSH2 0xC33 JUMP JUMPDEST DUP1 PUSH1 0x1F ADD PUSH1 0x20 DUP1 SWAP2 DIV MUL PUSH1 0x20 ADD PUSH1 0x40 MLOAD SWAP1 DUP2 ADD PUSH1 0x40 MSTORE DUP1 SWAP3 SWAP2 SWAP1 DUP2 DUP2 MSTORE PUSH1 0x20 ADD DUP3 DUP1 SLOAD PUSH2 0x50E SWAP1 PUSH2 0xC33 JUMP JUMPDEST DUP1 ISZERO PUSH2 0x55B JUMPI DUP1 PUSH1 0x1F LT PUSH2 0x530 JUMPI PUSH2 0x100 DUP1 DUP4 SLOAD DIV MUL DUP4 MSTORE SWAP2 PUSH1 0x20 ADD SWAP2 PUSH2 0x55B JUMP JUMPDEST DUP3 ADD SWAP2 SWAP1 PUSH1 0x0 MSTORE PUSH1 0x20 PUSH1 0x0 KECCAK256 SWAP1 JUMPDEST DUP2 SLOAD DUP2 MSTORE SWAP1 PUSH1 0x1 ADD SWAP1 PUSH1 0x20 ADD DUP1 DUP4 GT PUSH2 0x53E JUMPI DUP3 SWAP1 SUB PUSH1 0x1F AND DUP3 ADD SWAP2 JUMPDEST POP POP POP POP POP DUP2 MSTORE PUSH1 0x20 ADD PUSH1 0x1 DUP3 ADD DUP1 SLOAD PUSH2 0x574 SWAP1 PUSH2 0xC33 JUMP JUMPDEST DUP1 PUSH1 0x1F ADD PUSH1 0x20 DUP1 SWAP2 DIV MUL PUSH1 0x20 ADD PUSH1 0x40 MLOAD SWAP1 DUP2 ADD PUSH1 0x40 MSTORE DUP1 SWAP3 SWAP2 SWAP1 DUP2 DUP2 MSTORE PUSH1 0x20 ADD DUP3 DUP1 SLOAD PUSH2 0x5A0 SWAP1 PUSH2 0xC33 JUMP JUMPDEST DUP1 ISZERO PUSH2 0x5ED JUMPI DUP1 PUSH1 0x1F LT PUSH2 0x5C2 JUMPI PUSH2 0x100 DUP1 DUP4 SLOAD DIV MUL DUP4 MSTORE SWAP2 PUSH1 0x20 ADD SWAP2 PUSH2 0x5ED JUMP JUMPDEST DUP3 ADD SWAP2 SWAP1 PUSH1 0x0 MSTORE PUSH1 0x20 PUSH1 0x0 KECCAK256 SWAP1 JUMPDEST DUP2 SLOAD DUP2 MSTORE SWAP1 PUSH1 0x1 ADD SWAP1 PUSH1 0x20 ADD DUP1 DUP4 GT PUSH2 0x5D0 JUMPI DUP3 SWAP1 SUB PUSH1 0x1F AND DUP3 ADD SWAP2 JUMPDEST POP POP POP POP POP DUP2 MSTORE PUSH1 0x20 ADD PUSH1 0x2 DUP3 ADD PUSH1 0x0 SWAP1 SLOAD SWAP1 PUSH2 0x100 EXP SWAP1 DIV PUSH20 0xFFFFFFFFFFFFFFFFFFFFFFFFFFFFFFFFFFFFFFFF AND PUSH20 0xFFFFFFFFFFFFFFFFFFFFFFFFFFFFFFFFFFFFFFFF AND PUSH20 0xFFFFFFFFFFFFFFFFFFFFFFFFFFFFFFFFFFFFFFFF AND DUP2 MSTORE PUSH1 0x20 ADD PUSH1 0x3 DUP3 ADD SLOAD DUP2 MSTORE POP POP DUP2 MSTORE PUSH1 0x20 ADD SWAP1 PUSH1 0x1 ADD SWAP1 PUSH2 0x4AF JUMP JUMPDEST POP POP POP POP SWAP1 POP SWAP1 JUMP JUMPDEST PUSH1 0x0 PUSH1 0x40 MLOAD SWAP1 POP SWAP1 JUMP JUMPDEST PUSH1 0x0 DUP1 REVERT JUMPDEST PUSH1 0x0 DUP1 REVERT JUMPDEST PUSH1 0x0 DUP1 REVERT JUMPDEST PUSH1 0x0 DUP1 REVERT JUMPDEST PUSH1 0x0 PUSH1 0x1F NOT PUSH1 0x1F DUP4 ADD AND SWAP1 POP SWAP2 SWAP1 POP JUMP JUMPDEST PUSH32 0x4E487B7100000000000000000000000000000000000000000000000000000000 PUSH1 0x0 MSTORE PUSH1 0x41 PUSH1 0x4 MSTORE PUSH1 0x24 PUSH1 0x0 REVERT JUMPDEST PUSH2 0x6D5 DUP3 PUSH2 0x68C JUMP JUMPDEST DUP2 ADD DUP2 DUP2 LT PUSH8 0xFFFFFFFFFFFFFFFF DUP3 GT OR ISZERO PUSH2 0x6F4 JUMPI PUSH2 0x6F3 PUSH2 0x69D JUMP JUMPDEST JUMPDEST DUP1 PUSH1 0x40 MSTORE POP POP POP JUMP JUMPDEST PUSH1 0x0 PUSH2 0x707 PUSH2 0x66E JUMP JUMPDEST SWAP1 POP PUSH2 0x713 DUP3 DUP3 PUSH2 0x6CC JUMP JUMPDEST SWAP2 SWAP1 POP JUMP JUMPDEST PUSH1 0x0 PUSH8 0xFFFFFFFFFFFFFFFF DUP3 GT ISZERO PUSH2 0x733 JUMPI PUSH2 0x732 PUSH2 0x69D JUMP JUMPDEST JUMPDEST PUSH2 0x73C DUP3 PUSH2 0x68C JUMP JUMPDEST SWAP1 POP PUSH1 0x20 DUP2 ADD SWAP1 POP SWAP2 SWAP1 POP JUMP JUMPDEST DUP3 DUP2 DUP4 CALLDATACOPY PUSH1 0x0 DUP4 DUP4 ADD MSTORE POP POP POP JUMP JUMPDEST PUSH1 0x0 PUSH2 0x76B PUSH2 0x766 DUP5 PUSH2 0x718 JUMP JUMPDEST PUSH2 0x6FD JUMP JUMPDEST SWAP1 POP DUP3 DUP2 MSTORE PUSH1 0x20 DUP2 ADD DUP5 DUP5 DUP5 ADD GT ISZERO PUSH2 0x787 JUMPI PUSH2 0x786 PUSH2 0x687 JUMP JUMPDEST JUMPDEST PUSH2 0x792 DUP5 DUP3 DUP6 PUSH2 0x749 JUMP JUMPDEST POP SWAP4 SWAP3 POP POP POP JUMP JUMPDEST PUSH1 0x0 DUP3 PUSH1 0x1F DUP4 ADD SLT PUSH2 0x7AF JUMPI PUSH2 0x7AE PUSH2 0x682 JUMP JUMPDEST JUMPDEST DUP2 CALLDATALOAD PUSH2 0x7BF DUP5 DUP3 PUSH1 0x20 DUP7 ADD PUSH2 0x758 JUMP JUMPDEST SWAP2 POP POP SWAP3 SWAP2 POP POP JUMP JUMPDEST PUSH1 0x0 PUSH20 0xFFFFFFFFFFFFFFFFFFFFFFFFFFFFFFFFFFFFFFFF DUP3 AND SWAP1 POP SWAP2 SWAP1 POP JUMP JUMPDEST PUSH1 0x0 PUSH2 0x7F3 DUP3 PUSH2 0x7C8 JUMP JUMPDEST SWAP1 POP SWAP2 SWAP1 POP JUMP JUMPDEST PUSH2 0x803 DUP2 PUSH2 0x7E8 JUMP JUMPDEST DUP2 EQ PUSH2 0x80E JUMPI PUSH1 0x0 DUP1 REVERT JUMPDEST POP JUMP JUMPDEST PUSH1 0x0 DUP2 CALLDATALOAD SWAP1 POP PUSH2 0x820 DUP2 PUSH2 0x7FA JUMP JUMPDEST SWAP3 SWAP2 POP POP JUMP JUMPDEST PUSH1 0x0 DUP2 SWAP1 POP SWAP2 SWAP1 POP JUMP JUMPDEST PUSH2 0x839 DUP2 PUSH2 0x826 JUMP JUMPDEST DUP2 EQ PUSH2 0x844 JUMPI PUSH1 0x0 DUP1 REVERT JUMPDEST POP JUMP JUMPDEST PUSH1 0x0 DUP2 CALLDATALOAD SWAP1 POP PUSH2 0x856 DUP2 PUSH2 0x830 JUMP JUMPDEST SWAP3 SWAP2 POP POP JUMP JUMPDEST PUSH1 0x0 DUP1 PUSH1 0x0 DUP1 PUSH1 0x80 DUP6 DUP8 SUB SLT ISZERO PUSH2 0x876 JUMPI PUSH2 0x875 PUSH2 0x678 JUMP JUMPDEST JUMPDEST PUSH1 0x0 DUP6 ADD CALLDATALOAD PUSH8 0xFFFFFFFFFFFFFFFF DUP2 GT ISZERO PUSH2 0x894 JUMPI PUSH2 0x893 PUSH2 0x67D JUMP JUMPDEST JUMPDEST PUSH2 0x8A0 DUP8 DUP3 DUP9 ADD PUSH2 0x79A JUMP JUMPDEST SWAP5 POP POP PUSH1 0x20 DUP6 ADD CALLDATALOAD PUSH8 0xFFFFFFFFFFFFFFFF DUP2 GT ISZERO PUSH2 0x8C1 JUMPI PUSH2 0x8C0 PUSH2 0x67D JUMP JUMPDEST JUMPDEST PUSH2 0x8CD DUP8 DUP3 DUP9 ADD PUSH2 0x79A JUMP JUMPDEST SWAP4 POP POP PUSH1 0x40 PUSH2 0x8DE DUP8 DUP3 DUP9 ADD PUSH2 0x811 JUMP JUMPDEST SWAP3 POP POP PUSH1 0x60 PUSH2 0x8EF DUP8 DUP3 DUP9 ADD PUSH2 0x847 JUMP JUMPDEST SWAP2 POP POP SWAP3 SWAP6 SWAP2 SWAP5 POP SWAP3 POP JUMP JUMPDEST PUSH1 0x0 PUSH1 0x20 DUP3 DUP5 SUB SLT ISZERO PUSH2 0x911 JUMPI PUSH2 0x910 PUSH2 0x678 JUMP JUMPDEST JUMPDEST PUSH1 0x0 PUSH2 0x91F DUP5 DUP3 DUP6 ADD PUSH2 0x847 JUMP JUMPDEST SWAP2 POP POP SWAP3 SWAP2 POP POP JUMP JUMPDEST PUSH1 0x0 DUP2 MLOAD SWAP1 POP SWAP2 SWAP1 POP JUMP JUMPDEST PUSH1 0x0 DUP3 DUP3 MSTORE PUSH1 0x20 DUP3 ADD SWAP1 POP SWAP3 SWAP2 POP POP JUMP JUMPDEST PUSH1 0x0 JUMPDEST DUP4 DUP2 LT ISZERO PUSH2 0x962 JUMPI DUP1 DUP3 ADD MLOAD DUP2 DUP5 ADD MSTORE PUSH1 0x20 DUP2 ADD SWAP1 POP PUSH2 0x947 JUMP JUMPDEST PUSH1 0x0 DUP5 DUP5 ADD MSTORE POP POP POP POP JUMP JUMPDEST PUSH1 0x0 PUSH2 0x979 DUP3 PUSH2 0x928 JUMP JUMPDEST PUSH2 0x983 DUP2 DUP6 PUSH2 0x933 JUMP JUMPDEST SWAP4 POP PUSH2 0x993 DUP2 DUP6 PUSH1 0x20 DUP7 ADD PUSH2 0x944 JUMP JUMPDEST PUSH2 0x99C DUP2 PUSH2 0x68C JUMP JUMPDEST DUP5 ADD SWAP2 POP POP SWAP3 SWAP2 POP POP JUMP JUMPDEST PUSH2 0x9B0 DUP2 PUSH2 0x7E8 JUMP JUMPDEST DUP3 MSTORE POP POP JUMP JUMPDEST PUSH2 0x9BF DUP2 PUSH2 0x826 JUMP JUMPDEST DUP3 MSTORE POP POP JUMP JUMPDEST PUSH1 0x0 PUSH1 0x80 DUP3 ADD SWAP1 POP DUP2 DUP2 SUB PUSH1 0x0 DUP4 ADD MSTORE PUSH2 0x9DF DUP2 DUP8 PUSH2 0x96E JUMP JUMPDEST SWAP1 POP DUP2 DUP2 SUB PUSH1 0x20 DUP4 ADD MSTORE PUSH2 0x9F3 DUP2 DUP7 PUSH2 0x96E JUMP JUMPDEST SWAP1 POP PUSH2 0xA02 PUSH1 0x40 DUP4 ADD DUP6 PUSH2 0x9A7 JUMP JUMPDEST PUSH2 0xA0F PUSH1 0x60 DUP4 ADD DUP5 PUSH2 0x9B6 JUMP JUMPDEST SWAP6 SWAP5 POP POP POP POP POP JUMP JUMPDEST PUSH1 0x0 DUP2 ISZERO ISZERO SWAP1 POP SWAP2 SWAP1 POP JUMP JUMPDEST PUSH2 0xA2D DUP2 PUSH2 0xA18 JUMP JUMPDEST DUP3 MSTORE POP POP JUMP JUMPDEST PUSH1 0x0 PUSH1 0x20 DUP3 ADD SWAP1 POP PUSH2 0xA48 PUSH1 0x0 DUP4 ADD DUP5 PUSH2 0xA24 JUMP JUMPDEST SWAP3 SWAP2 POP POP JUMP JUMPDEST PUSH1 0x0 DUP2 MLOAD SWAP1 POP SWAP2 SWAP1 POP JUMP JUMPDEST PUSH1 0x0 DUP3 DUP3 MSTORE PUSH1 0x20 DUP3 ADD SWAP1 POP SWAP3 SWAP2 POP POP JUMP JUMPDEST PUSH1 0x0 DUP2 SWAP1 POP PUSH1 0x20 DUP3 ADD SWAP1 POP SWAP2 SWAP1 POP JUMP JUMPDEST PUSH1 0x0 DUP3 DUP3 MSTORE PUSH1 0x20 DUP3 ADD SWAP1 POP SWAP3 SWAP2 POP POP JUMP JUMPDEST PUSH1 0x0 PUSH2 0xA96 DUP3 PUSH2 0x928 JUMP JUMPDEST PUSH2 0xAA0 DUP2 DUP6 PUSH2 0xA7A JUMP JUMPDEST SWAP4 POP PUSH2 0xAB0 DUP2 DUP6 PUSH1 0x20 DUP7 ADD PUSH2 0x944 JUMP JUMPDEST PUSH2 0xAB9 DUP2 PUSH2 0x68C JUMP JUMPDEST DUP5 ADD SWAP2 POP POP SWAP3 SWAP2 POP POP JUMP JUMPDEST PUSH2 0xACD DUP2 PUSH2 0x7E8 JUMP JUMPDEST DUP3 MSTORE POP POP JUMP JUMPDEST PUSH2 0xADC DUP2 PUSH2 0x826 JUMP JUMPDEST DUP3 MSTORE POP POP JUMP JUMPDEST PUSH1 0x0 PUSH1 0x80 DUP4 ADD PUSH1 0x0 DUP4 ADD MLOAD DUP5 DUP3 SUB PUSH1 0x0 DUP7 ADD MSTORE PUSH2 0xAFF DUP3 DUP3 PUSH2 0xA8B JUMP JUMPDEST SWAP2 POP POP PUSH1 0x20 DUP4 ADD MLOAD DUP5 DUP3 SUB PUSH1 0x20 DUP7 ADD MSTORE PUSH2 0xB19 DUP3 DUP3 PUSH2 0xA8B JUMP JUMPDEST SWAP2 POP POP PUSH1 0x40 DUP4 ADD MLOAD PUSH2 0xB2E PUSH1 0x40 DUP7 ADD DUP3 PUSH2 0xAC4 JUMP JUMPDEST POP PUSH1 0x60 DUP4 ADD MLOAD PUSH2 0xB41 PUSH1 0x60 DUP7 ADD DUP3 PUSH2 0xAD3 JUMP JUMPDEST POP DUP1 SWAP2 POP POP SWAP3 SWAP2 POP POP JUMP JUMPDEST PUSH1 0x0 PUSH2 0xB58 DUP4 DUP4 PUSH2 0xAE2 JUMP JUMPDEST SWAP1 POP SWAP3 SWAP2 POP POP JUMP JUMPDEST PUSH1 0x0 PUSH1 0x20 DUP3 ADD SWAP1 POP SWAP2 SWAP1 POP JUMP JUMPDEST PUSH1 0x0 PUSH2 0xB78 DUP3 PUSH2 0xA4E JUMP JUMPDEST PUSH2 0xB82 DUP2 DUP6 PUSH2 0xA59 JUMP JUMPDEST SWAP4 POP DUP4 PUSH1 0x20 DUP3 MUL DUP6 ADD PUSH2 0xB94 DUP6 PUSH2 0xA6A JUMP JUMPDEST DUP1 PUSH1 0x0 JUMPDEST DUP6 DUP2 LT ISZERO PUSH2 0xBD0 JUMPI DUP5 DUP5 SUB DUP10 MSTORE DUP2 MLOAD PUSH2 0xBB1 DUP6 DUP3 PUSH2 0xB4C JUMP JUMPDEST SWAP5 POP PUSH2 0xBBC DUP4 PUSH2 0xB60 JUMP JUMPDEST SWAP3 POP PUSH1 0x20 DUP11 ADD SWAP10 POP POP PUSH1 0x1 DUP2 ADD SWAP1 POP PUSH2 0xB98 JUMP JUMPDEST POP DUP3 SWAP8 POP DUP8 SWAP6 POP POP POP POP POP POP SWAP3 SWAP2 POP POP JUMP JUMPDEST PUSH1 0x0 PUSH1 0x20 DUP3 ADD SWAP1 POP DUP2 DUP2 SUB PUSH1 0x0 DUP4 ADD MSTORE PUSH2 0xBFC DUP2 DUP5 PUSH2 0xB6D JUMP JUMPDEST SWAP1 POP SWAP3 SWAP2 POP POP JUMP JUMPDEST PUSH32 0x4E487B7100000000000000000000000000000000000000000000000000000000 PUSH1 0x0 MSTORE PUSH1 0x22 PUSH1 0x4 MSTORE PUSH1 0x24 PUSH1 0x0 REVERT JUMPDEST PUSH1 0x0 PUSH1 0x2 DUP3 DIV SWAP1 POP PUSH1 0x1 DUP3 AND DUP1 PUSH2 0xC4B JUMPI PUSH1 0x7F DUP3 AND SWAP2 POP JUMPDEST PUSH1 0x20 DUP3 LT DUP2 SUB PUSH2 0xC5E JUMPI PUSH2 0xC5D PUSH2 0xC04 JUMP JUMPDEST JUMPDEST POP SWAP2 SWAP1 POP JUMP JUMPDEST PUSH1 0x0 DUP2 SWAP1 POP DUP2 PUSH1 0x0 MSTORE PUSH1 0x20 PUSH1 0x0 KECCAK256 SWAP1 POP SWAP2 SWAP1 POP JUMP JUMPDEST PUSH1 0x0 PUSH1 0x20 PUSH1 0x1F DUP4 ADD DIV SWAP1 POP SWAP2 SWAP1 POP JUMP JUMPDEST PUSH1 0x0 DUP2 PUSH1 0x2 EXP DUP4 MUL SWAP1 POP SWAP3 SWAP2 POP POP JUMP JUMPDEST PUSH1 0x0 PUSH1 0x8 DUP4 MUL PUSH2 0xCC9 PUSH32 0xFFFFFFFFFFFFFFFFFFFFFFFFFFFFFFFFFFFFFFFFFFFFFFFFFFFFFFFFFFFFFFFF DUP3 PUSH2 0xC89 JUMP JUMPDEST PUSH2 0xCD3 DUP7 DUP4 PUSH2 0xC89 JUMP JUMPDEST SWAP6 POP DUP1 NOT DUP5 AND SWAP4 POP DUP1 DUP7 AND DUP5 OR SWAP3 POP POP POP SWAP4 SWAP3 POP POP POP JUMP JUMPDEST PUSH1 0x0 DUP2 SWAP1 POP SWAP2 SWAP1 POP JUMP JUMPDEST PUSH1 0x0 PUSH2 0xD10 PUSH2 0xD0B PUSH2 0xD06 DUP5 PUSH2 0x826 JUMP JUMPDEST PUSH2 0xCEB JUMP JUMPDEST PUSH2 0x826 JUMP JUMPDEST SWAP1 POP SWAP2 SWAP1 POP JUMP JUMPDEST PUSH1 0x0 DUP2 SWAP1 POP SWAP2 SWAP1 POP JUMP JUMPDEST PUSH2 0xD2A DUP4 PUSH2 0xCF5 JUMP JUMPDEST PUSH2 0xD3E PUSH2 0xD36 DUP3 PUSH2 0xD17 JUMP JUMPDEST DUP5 DUP5 SLOAD PUSH2 0xC99 JUMP JUMPDEST DUP3 SSTORE POP POP POP POP JUMP JUMPDEST PUSH1 0x0 SWAP1 JUMP JUMPDEST PUSH2 0xD53 PUSH2 0xD46 JUMP JUMPDEST PUSH2 0xD5E DUP2 DUP5 DUP5 PUSH2 0xD21 JUMP JUMPDEST POP POP POP JUMP JUMPDEST JUMPDEST DUP2 DUP2 LT ISZERO PUSH2 0xD82 JUMPI PUSH2 0xD77 PUSH1 0x0 DUP3 PUSH2 0xD4B JUMP JUMPDEST PUSH1 0x1 DUP2 ADD SWAP1 POP PUSH2 0xD64 JUMP JUMPDEST POP POP JUMP JUMPDEST PUSH1 0x1F DUP3 GT ISZERO PUSH2 0xDC7 JUMPI PUSH2 0xD98 DUP2 PUSH2 0xC64 JUMP JUMPDEST PUSH2 0xDA1 DUP5 PUSH2 0xC79 JUMP JUMPDEST DUP2 ADD PUSH1 0x20 DUP6 LT ISZERO PUSH2 0xDB0 JUMPI DUP2 SWAP1 POP JUMPDEST PUSH2 0xDC4 PUSH2 0xDBC DUP6 PUSH2 0xC79 JUMP JUMPDEST DUP4 ADD DUP3 PUSH2 0xD63 JUMP JUMPDEST POP POP JUMPDEST POP POP POP JUMP JUMPDEST PUSH1 0x0 DUP2 PUSH1 0x2 EXP DUP4 DIV SWAP1 POP SWAP3 SWAP2 POP POP JUMP JUMPDEST PUSH1 0x0 PUSH2 0xDED PUSH1 0x0 NOT DUP5 PUSH1 0x8 MUL PUSH2 0xDCC JUMP JUMPDEST NOT DUP1 DUP4 AND SWAP2 POP POP SWAP3 SWAP2 POP POP JUMP JUMPDEST PUSH1 0x0 PUSH2 0xE06 DUP4 DUP4 PUSH2 0xDDC JUMP JUMPDEST SWAP2 POP DUP3 PUSH1 0x2 MUL DUP3 OR SWAP1 POP SWAP3 SWAP2 POP POP JUMP JUMPDEST PUSH2 0xE1F DUP3 PUSH2 0x928 JUMP JUMPDEST PUSH8 0xFFFFFFFFFFFFFFFF DUP2 GT ISZERO PUSH2 0xE38 JUMPI PUSH2 0xE37 PUSH2 0x69D JUMP JUMPDEST JUMPDEST PUSH2 0xE42 DUP3 SLOAD PUSH2 0xC33 JUMP JUMPDEST PUSH2 0xE4D DUP3 DUP3 DUP6 PUSH2 0xD86 JUMP JUMPDEST PUSH1 0x0 PUSH1 0x20 SWAP1 POP PUSH1 0x1F DUP4 GT PUSH1 0x1 DUP2 EQ PUSH2 0xE80 JUMPI PUSH1 0x0 DUP5 ISZERO PUSH2 0xE6E JUMPI DUP3 DUP8 ADD MLOAD SWAP1 POP JUMPDEST PUSH2 0xE78 DUP6 DUP3 PUSH2 0xDFA JUMP JUMPDEST DUP7 SSTORE POP PUSH2 0xEE0 JUMP JUMPDEST PUSH1 0x1F NOT DUP5 AND PUSH2 0xE8E DUP7 PUSH2 0xC64 JUMP JUMPDEST PUSH1 0x0 JUMPDEST DUP3 DUP2 LT ISZERO PUSH2 0xEB6 JUMPI DUP5 DUP10 ADD MLOAD DUP3 SSTORE PUSH1 0x1 DUP3 ADD SWAP2 POP PUSH1 0x20 DUP6 ADD SWAP5 POP PUSH1 0x20 DUP2 ADD SWAP1 POP PUSH2 0xE91 JUMP JUMPDEST DUP7 DUP4 LT ISZERO PUSH2 0xED3 JUMPI DUP5 DUP10 ADD MLOAD PUSH2 0xECF PUSH1 0x1F DUP10 AND DUP3 PUSH2 0xDDC JUMP JUMPDEST DUP4 SSTORE POP JUMPDEST PUSH1 0x1 PUSH1 0x2 DUP9 MUL ADD DUP9 SSTORE POP POP POP JUMPDEST POP POP POP POP POP POP JUMP JUMPDEST PUSH32 0x4E487B7100000000000000000000000000000000000000000000000000000000 PUSH1 0x0 MSTORE PUSH1 0x32 PUSH1 0x4 MSTORE PUSH1 0x24 PUSH1 0x0 REVERT JUMPDEST PUSH1 0x0 DUP2 SWAP1 POP SWAP3 SWAP2 POP POP JUMP JUMPDEST PUSH1 0x0 DUP2 SWAP1 POP DUP2 PUSH1 0x0 MSTORE PUSH1 0x20 PUSH1 0x0 KECCAK256 SWAP1 POP SWAP2 SWAP1 POP JUMP JUMPDEST PUSH1 0x0 DUP2 SLOAD PUSH2 0xF44 DUP2 PUSH2 0xC33 JUMP JUMPDEST PUSH2 0xF4E DUP2 DUP7 PUSH2 0xF17 JUMP JUMPDEST SWAP5 POP PUSH1 0x1 DUP3 AND PUSH1 0x0 DUP2 EQ PUSH2 0xF69 JUMPI PUSH1 0x1 DUP2 EQ PUSH2 0xF7E JUMPI PUSH2 0xFB1 JUMP JUMPDEST PUSH1 0xFF NOT DUP4 AND DUP7 MSTORE DUP2 ISZERO ISZERO DUP3 MUL DUP7 ADD SWAP4 POP PUSH2 0xFB1 JUMP JUMPDEST PUSH2 0xF87 DUP6 PUSH2 0xF22 JUMP JUMPDEST PUSH1 0x0 JUMPDEST DUP4 DUP2 LT ISZERO PUSH2 0xFA9 JUMPI DUP2 SLOAD DUP2 DUP10 ADD MSTORE PUSH1 0x1 DUP3 ADD SWAP2 POP PUSH1 0x20 DUP2 ADD SWAP1 POP PUSH2 0xF8A JUMP JUMPDEST DUP4 DUP9 ADD SWAP6 POP POP POP JUMPDEST POP POP POP SWAP3 SWAP2 POP POP JUMP JUMPDEST PUSH1 0x0 PUSH2 0xFC6 DUP3 DUP5 PUSH2 0xF37 JUMP JUMPDEST SWAP2 POP DUP2 SWAP1 POP SWAP3 SWAP2 POP POP JUMP JUMPDEST PUSH32 0x4E487B7100000000000000000000000000000000000000000000000000000000 PUSH1 0x0 MSTORE PUSH1 0x11 PUSH1 0x4 MSTORE PUSH1 0x24 PUSH1 0x0 REVERT JUMPDEST PUSH1 0x0 PUSH2 0x100B DUP3 PUSH2 0x826 JUMP JUMPDEST SWAP2 POP PUSH32 0xFFFFFFFFFFFFFFFFFFFFFFFFFFFFFFFFFFFFFFFFFFFFFFFFFFFFFFFFFFFFFFFF DUP3 SUB PUSH2 0x103D JUMPI PUSH2 0x103C PUSH2 0xFD1 JUMP JUMPDEST JUMPDEST PUSH1 0x1 DUP3 ADD SWAP1 POP SWAP2 SWAP1 POP JUMP INVALID LOG2 PUSH5 0x6970667358 0x22 SLT KECCAK256 DUP10 0xE6 PUSH8 0x7E762CA82ABB860C GAS SWAP8 0x49 STATICCALL SWAP11 0xDB 0xC5 STATICCALL SWAP10 EQ XOR DUP11 SWAP8 PUSH21 0x8153792845D61964736F6C63430008120033000000 "
				},
				"gasEstimates": {
					"creation": {
						"codeDepositCost": "844400",
						"executionCost": "877",
						"totalCost": "845277"
					},
					"external": {
						"addWinner(string,string,address,uint256)": "infinite",
						"checkUser(string,string,address,uint256)": "infinite",
						"showWinner()": "infinite",
						"usersData(uint256)": "infinite"
					}
				},
				"methodIdentifiers": {
					"addWinner(string,string,address,uint256)": "87d96c55",
					"checkUser(string,string,address,uint256)": "ad1aa429",
					"showWinner()": "b7e03264",
					"usersData(uint256)": "8905c274"
				}
			},
			"storageLayout": {
				"storage": [
					{
						"astId": 12,
						"contract": "basic/contracts/Giveaway.sol:Giveaway",
						"label": "owner",
						"offset": 0,
						"slot": "0",
						"type": "t_address"
					},
					{
						"astId": 16,
						"contract": "basic/contracts/Giveaway.sol:Giveaway",
						"label": "usersData",
						"offset": 0,
						"slot": "1",
						"type": "t_array(t_struct(UserData)10_storage)dyn_storage"
					}
				],
				"types": {
					"t_address": {
						"encoding": "inplace",
						"label": "address",
						"numberOfBytes": "20"
					},
					"t_array(t_struct(UserData)10_storage)dyn_storage": {
						"base": "t_struct(UserData)10_storage",
						"encoding": "dynamic_array",
						"label": "struct Giveaway.UserData[]",
						"numberOfBytes": "32"
					},
					"t_string_storage": {
						"encoding": "bytes",
						"label": "string",
						"numberOfBytes": "32"
					},
					"t_struct(UserData)10_storage": {
						"encoding": "inplace",
						"label": "struct Giveaway.UserData",
						"members": [
							{
								"astId": 3,
								"contract": "basic/contracts/Giveaway.sol:Giveaway",
								"label": "name",
								"offset": 0,
								"slot": "0",
								"type": "t_string_storage"
							},
							{
								"astId": 5,
								"contract": "basic/contracts/Giveaway.sol:Giveaway",
								"label": "email",
								"offset": 0,
								"slot": "1",
								"type": "t_string_storage"
							},
							{
								"astId": 7,
								"contract": "basic/contracts/Giveaway.sol:Giveaway",
								"label": "userAddress",
								"offset": 0,
								"slot": "2",
								"type": "t_address"
							},
							{
								"astId": 9,
								"contract": "basic/contracts/Giveaway.sol:Giveaway",
								"label": "giveawayCode",
								"offset": 0,
								"slot": "3",
								"type": "t_uint256"
							}
						],
						"numberOfBytes": "128"
					},
					"t_uint256": {
						"encoding": "inplace",
						"label": "uint256",
						"numberOfBytes": "32"
					}
				}
			},
			"userdoc": {
				"kind": "user",
				"methods": {},
				"version": 1
			}
		}
	}
}